{
  "address": "0xA2f7CE3e9044B45B71a497506fd99989B13e5899",
  "abi": [
    {
      "anonymous": false,
      "inputs": [
        {
          "indexed": true,
          "internalType": "address",
          "name": "factory",
          "type": "address"
        }
      ],
      "name": "FactoryAdded",
      "type": "event"
    },
    {
      "anonymous": false,
      "inputs": [
        {
          "indexed": true,
          "internalType": "address",
          "name": "factory",
          "type": "address"
        }
      ],
      "name": "FactoryRemoved",
      "type": "event"
    },
    {
      "anonymous": false,
      "inputs": [
        {
          "indexed": true,
          "internalType": "address",
          "name": "mainAsset",
          "type": "address"
        }
      ],
      "name": "MainAssetAdded",
      "type": "event"
    },
    {
      "anonymous": false,
      "inputs": [
        {
          "indexed": true,
          "internalType": "address",
          "name": "mainAsset",
          "type": "address"
        }
      ],
      "name": "MainAssetRemoved",
      "type": "event"
    },
    {
      "anonymous": false,
      "inputs": [
        {
          "indexed": true,
          "internalType": "address",
          "name": "asset",
          "type": "address"
        },
        {
          "indexed": true,
          "internalType": "contract IUniswapV2Pair",
          "name": "pair",
          "type": "address"
        }
      ],
      "name": "OverridenPairSet",
      "type": "event"
    },
    {
      "anonymous": false,
      "inputs": [
        {
          "indexed": true,
          "internalType": "bytes32",
          "name": "role",
          "type": "bytes32"
        },
        {
          "indexed": true,
          "internalType": "bytes32",
          "name": "previousAdminRole",
          "type": "bytes32"
        },
        {
          "indexed": true,
          "internalType": "bytes32",
          "name": "newAdminRole",
          "type": "bytes32"
        }
      ],
      "name": "RoleAdminChanged",
      "type": "event"
    },
    {
      "anonymous": false,
      "inputs": [
        {
          "indexed": true,
          "internalType": "bytes32",
          "name": "role",
          "type": "bytes32"
        },
        {
          "indexed": true,
          "internalType": "address",
          "name": "account",
          "type": "address"
        },
        {
          "indexed": true,
          "internalType": "address",
          "name": "sender",
          "type": "address"
        }
      ],
      "name": "RoleGranted",
      "type": "event"
    },
    {
      "anonymous": false,
      "inputs": [
        {
          "indexed": true,
          "internalType": "bytes32",
          "name": "role",
          "type": "bytes32"
        },
        {
          "indexed": true,
          "internalType": "address",
          "name": "account",
          "type": "address"
        },
        {
          "indexed": true,
          "internalType": "address",
          "name": "sender",
          "type": "address"
        }
      ],
      "name": "RoleRevoked",
      "type": "event"
    },
    {
      "anonymous": false,
      "inputs": [
        {
          "indexed": true,
          "internalType": "address",
          "name": "stablecoin",
          "type": "address"
        },
        {
          "indexed": true,
          "internalType": "bool",
          "name": "set",
          "type": "bool"
        }
      ],
      "name": "StableCoinSet",
      "type": "event"
    },
    {
      "inputs": [],
      "name": "DEFAULT_ADMIN_ROLE",
      "outputs": [
        {
          "internalType": "bytes32",
          "name": "",
          "type": "bytes32"
        }
      ],
      "stateMutability": "view",
      "type": "function"
    },
    {
      "inputs": [],
      "name": "SET_ASSET_ROLE",
      "outputs": [
        {
          "internalType": "bytes32",
          "name": "",
          "type": "bytes32"
        }
      ],
      "stateMutability": "view",
      "type": "function"
    },
    {
      "inputs": [],
      "name": "SET_FACTORY_ROLE",
      "outputs": [
        {
          "internalType": "bytes32",
          "name": "",
          "type": "bytes32"
        }
      ],
      "stateMutability": "view",
      "type": "function"
    },
    {
      "inputs": [],
      "name": "VERSION",
      "outputs": [
        {
          "internalType": "uint256",
          "name": "",
          "type": "uint256"
        }
      ],
      "stateMutability": "view",
      "type": "function"
    },
    {
      "inputs": [
        {
          "internalType": "address",
          "name": "_factory",
          "type": "address"
        }
      ],
      "name": "addFactory",
      "outputs": [],
      "stateMutability": "nonpayable",
      "type": "function"
    },
    {
      "inputs": [
        {
          "internalType": "address",
          "name": "_mainAsset",
          "type": "address"
        }
      ],
      "name": "addMainAsset",
      "outputs": [],
      "stateMutability": "nonpayable",
      "type": "function"
    },
    {
      "inputs": [
        {
          "internalType": "uint256",
          "name": "index",
          "type": "uint256"
        }
      ],
      "name": "factoryAt",
      "outputs": [
        {
          "internalType": "address",
          "name": "",
          "type": "address"
        }
      ],
      "stateMutability": "view",
      "type": "function"
    },
    {
      "inputs": [],
      "name": "factoryLength",
      "outputs": [
        {
          "internalType": "uint256",
          "name": "",
          "type": "uint256"
        }
      ],
      "stateMutability": "view",
      "type": "function"
    },
    {
      "inputs": [
        {
          "internalType": "address",
          "name": "asset",
          "type": "address"
        },
        {
          "internalType": "bytes",
          "name": "metadata",
          "type": "bytes"
        }
      ],
      "name": "getPrice",
      "outputs": [
        {
          "internalType": "uint256",
          "name": "",
          "type": "uint256"
        }
      ],
      "stateMutability": "view",
      "type": "function"
    },
    {
      "inputs": [
        {
          "internalType": "address[]",
          "name": "assets",
          "type": "address[]"
        },
        {
          "internalType": "bytes[]",
          "name": "metadata",
          "type": "bytes[]"
        }
      ],
      "name": "getPrices",
      "outputs": [
        {
          "internalType": "uint256[]",
          "name": "",
          "type": "uint256[]"
        }
      ],
      "stateMutability": "view",
      "type": "function"
    },
    {
      "inputs": [
        {
          "internalType": "bytes32",
          "name": "role",
          "type": "bytes32"
        }
      ],
      "name": "getRoleAdmin",
      "outputs": [
        {
          "internalType": "bytes32",
          "name": "",
          "type": "bytes32"
        }
      ],
      "stateMutability": "view",
      "type": "function"
    },
    {
      "inputs": [
        {
          "internalType": "bytes32",
          "name": "role",
          "type": "bytes32"
        },
        {
          "internalType": "uint256",
          "name": "index",
          "type": "uint256"
        }
      ],
      "name": "getRoleMember",
      "outputs": [
        {
          "internalType": "address",
          "name": "",
          "type": "address"
        }
      ],
      "stateMutability": "view",
      "type": "function"
    },
    {
      "inputs": [
        {
          "internalType": "bytes32",
          "name": "role",
          "type": "bytes32"
        }
      ],
      "name": "getRoleMemberCount",
      "outputs": [
        {
          "internalType": "uint256",
          "name": "",
          "type": "uint256"
        }
      ],
      "stateMutability": "view",
      "type": "function"
    },
    {
      "inputs": [
        {
          "internalType": "address",
          "name": "asset",
          "type": "address"
        },
        {
          "internalType": "uint256",
          "name": "amount",
          "type": "uint256"
        },
        {
          "internalType": "bytes",
          "name": "metadata",
          "type": "bytes"
        }
      ],
      "name": "getValue",
      "outputs": [
        {
          "internalType": "uint256",
          "name": "",
          "type": "uint256"
        }
      ],
      "stateMutability": "view",
      "type": "function"
    },
    {
      "inputs": [
        {
          "internalType": "address[]",
          "name": "assets",
          "type": "address[]"
        },
        {
          "internalType": "uint256[]",
          "name": "amounts",
          "type": "uint256[]"
        },
        {
          "internalType": "bytes[]",
          "name": "metadata",
          "type": "bytes[]"
        }
      ],
      "name": "getValues",
      "outputs": [
        {
          "internalType": "uint256[]",
          "name": "",
          "type": "uint256[]"
        }
      ],
      "stateMutability": "view",
      "type": "function"
    },
    {
      "inputs": [
        {
          "internalType": "bytes32",
          "name": "role",
          "type": "bytes32"
        },
        {
          "internalType": "address",
          "name": "account",
          "type": "address"
        }
      ],
      "name": "grantRole",
      "outputs": [],
      "stateMutability": "nonpayable",
      "type": "function"
    },
    {
      "inputs": [
        {
          "internalType": "bytes32",
          "name": "role",
          "type": "bytes32"
        },
        {
          "internalType": "address",
          "name": "account",
          "type": "address"
        }
      ],
      "name": "hasRole",
      "outputs": [
        {
          "internalType": "bool",
          "name": "",
          "type": "bool"
        }
      ],
      "stateMutability": "view",
      "type": "function"
    },
    {
      "inputs": [
        {
          "internalType": "address",
          "name": "_owner",
          "type": "address"
        }
      ],
      "name": "initialize",
      "outputs": [],
      "stateMutability": "nonpayable",
      "type": "function"
    },
    {
      "inputs": [
        {
          "internalType": "uint256",
          "name": "index",
          "type": "uint256"
        }
      ],
      "name": "mainAssetAt",
      "outputs": [
        {
          "internalType": "address",
          "name": "",
          "type": "address"
        }
      ],
      "stateMutability": "view",
      "type": "function"
    },
    {
      "inputs": [],
      "name": "mainAssetLength",
      "outputs": [
        {
          "internalType": "uint256",
          "name": "",
          "type": "uint256"
        }
      ],
      "stateMutability": "view",
      "type": "function"
    },
    {
      "inputs": [
        {
          "internalType": "address",
          "name": "",
          "type": "address"
        }
      ],
      "name": "overridenPairForToken",
      "outputs": [
        {
          "internalType": "contract IUniswapV2Pair",
          "name": "",
          "type": "address"
        }
      ],
      "stateMutability": "view",
      "type": "function"
    },
    {
      "inputs": [],
      "name": "pairChecker",
      "outputs": [
        {
          "internalType": "contract PairChecker",
          "name": "",
          "type": "address"
        }
      ],
      "stateMutability": "view",
      "type": "function"
    },
    {
      "inputs": [
        {
          "internalType": "address",
          "name": "_factory",
          "type": "address"
        }
      ],
      "name": "removeFactory",
      "outputs": [],
      "stateMutability": "nonpayable",
      "type": "function"
    },
    {
      "inputs": [
        {
          "internalType": "address",
          "name": "_mainAsset",
          "type": "address"
        }
      ],
      "name": "removeMainAsset",
      "outputs": [],
      "stateMutability": "nonpayable",
      "type": "function"
    },
    {
      "inputs": [
        {
          "internalType": "bytes32",
          "name": "role",
          "type": "bytes32"
        },
        {
          "internalType": "address",
          "name": "account",
          "type": "address"
        }
      ],
      "name": "renounceRole",
      "outputs": [],
      "stateMutability": "nonpayable",
      "type": "function"
    },
    {
      "inputs": [
        {
          "internalType": "bytes32",
          "name": "role",
          "type": "bytes32"
        },
        {
          "internalType": "address",
          "name": "account",
          "type": "address"
        }
      ],
      "name": "revokeRole",
      "outputs": [],
      "stateMutability": "nonpayable",
      "type": "function"
    },
    {
      "inputs": [
        {
          "internalType": "address",
          "name": "asset",
          "type": "address"
        },
        {
          "internalType": "contract IUniswapV2Pair",
          "name": "pair",
          "type": "address"
        }
      ],
      "name": "setOverridenPair",
      "outputs": [],
      "stateMutability": "nonpayable",
      "type": "function"
    },
    {
      "inputs": [
        {
          "internalType": "address",
          "name": "stablecoin",
          "type": "address"
        },
        {
          "internalType": "bool",
          "name": "set",
          "type": "bool"
        }
      ],
      "name": "setStablecoin",
      "outputs": [],
      "stateMutability": "nonpayable",
      "type": "function"
    },
    {
      "inputs": [
        {
          "internalType": "address",
          "name": "",
          "type": "address"
        }
      ],
      "name": "stablecoins",
      "outputs": [
        {
          "internalType": "bool",
          "name": "set",
          "type": "bool"
        },
        {
          "internalType": "uint8",
          "name": "decimals",
          "type": "uint8"
        }
      ],
      "stateMutability": "view",
      "type": "function"
    },
    {
      "inputs": [
        {
          "internalType": "bytes4",
          "name": "interfaceId",
          "type": "bytes4"
        }
      ],
      "name": "supportsInterface",
      "outputs": [
        {
          "internalType": "bool",
          "name": "",
          "type": "bool"
        }
      ],
      "stateMutability": "view",
      "type": "function"
    }
  ],
  "transactionHash": "0x6a7d937290ef28e5f4d5bec9753d522e3393e0b4dffd79abe36906674322a417",
  "args": [],
  "solcInputHash": "ca24c36790dbf6d9cd4eba1f3c83c5c6",
  "bytecode": "0x608060405234801561001057600080fd5b50612b76806100206000396000f3fe608060405234801561001057600080fd5b50600436106101da5760003560e01c80639010d07c11610104578063cfa26d94116100a2578063df7697d211610071578063df7697d214610408578063e9d57a8714610431578063fa84783614610446578063ffa1ad741461048b57600080fd5b8063cfa26d94146103af578063d547741f146103cf578063d62cdd17146103e2578063dbe288b4146103f557600080fd5b8063a760b08a116100de578063a760b08a14610361578063c4d66de814610374578063c89b88e314610387578063ca15c8731461039c57600080fd5b80639010d07c1461033357806391d1485414610346578063a217fddf1461035957600080fd5b80632f2ff15d1161017c5780634b3617ae1161014b5780634b3617ae146102e75780634b37c73f146102fa5780637bfcdc641461030d5780638ac06f501461032057600080fd5b80632f2ff15d146102a657806336568abe146102b95780633e1aceb8146102cc578063470f4985146102df57600080fd5b80631603a174116101b85780631603a174146102455780631ccbf9081461025b578063248a9ca31461027057806329ce1ec51461029357600080fd5b806301ffc9a7146101df578063089b51221461020757806309666e3914610232575b600080fd5b6101f26101ed36600461241f565b610493565b60405190151581526020015b60405180910390f35b60cf5461021a906001600160a01b031681565b6040516001600160a01b0390911681526020016101fe565b61021a6102403660046123bf565b6104be565b61024d6104cb565b6040519081526020016101fe565b61026e6102693660046121ad565b6104dc565b005b61024d61027e3660046123bf565b60009081526065602052604090206001015490565b61026e6102a1366004612173565b6105f5565b61026e6102b43660046123d8565b6106a0565b61026e6102c73660046123d8565b6106cb565b61026e6102da366004612173565b610749565b61024d610899565b61024d6102f5366004612269565b6108a5565b61026e610308366004612173565b610d26565b61026e61031b36600461223b565b610dc4565b61024d61032e3660046121e6565b610e35565b61021a6103413660046123fd565b610ecf565b6101f26103543660046123d8565b610ee7565b61024d600081565b61026e61036f366004612173565b610f12565b61026e610382366004612173565b610fb0565b61024d600080516020612b0183398151915281565b61024d6103aa3660046123bf565b6110a8565b6103c26103bd3660046122c5565b6110bf565b6040516101fe91906125f7565b61026e6103dd3660046123d8565b611244565b6103c26103f0366004612325565b61126a565b61021a6104033660046123bf565b61134e565b61021a610416366004612173565b60cd602052600090815260409020546001600160a01b031681565b61024d600080516020612b2183398151915281565b610472610454366004612173565b60ce6020526000908152604090205460ff8082169161010090041682565b60408051921515835260ff9091166020830152016101fe565b61024d600181565b60006001600160e01b03198216635a05180f60e01b14806104b857506104b88261135b565b92915050565b60006104b860c983611390565b60006104d760cb61139c565b905090565b600080516020612b218339815191526104f581336113a6565b60405180604001604052808315158152602001846001600160a01b031663313ce5676040518163ffffffff1660e01b815260040160206040518083038186803b15801561054157600080fd5b505afa158015610555573d6000803e3d6000fd5b505050506040513d601f19601f82011682018060405250810190610579919061255f565b60ff9081169091526001600160a01b038516600081815260ce602090815260408083208651815497909301519095166101000261ff00199215159290921661ffff199096169590951717909255915184151592917ffa3d03fdbb5c58a9dbb070320f30076f20061ef3e48f1ac41f11fc3e043c007c91a3505050565b600080516020612b0183398151915261060e81336113a6565b61061960c98361140a565b1561065c5760405162461bcd60e51b815260206004820152600e60248201526d08585b1c9958591e48185919195960921b60448201526064015b60405180910390fd5b61066760c98361142c565b506040516001600160a01b038316907f6fdc0147105e43e21da80a75b42d0fd464060d5e1a34b0cefbf0b4ccfc2e36a190600090a25050565b6000828152606560205260409020600101546106bc81336113a6565b6106c68383611441565b505050565b6001600160a01b038116331461073b5760405162461bcd60e51b815260206004820152602f60248201527f416363657373436f6e74726f6c3a2063616e206f6e6c792072656e6f756e636560448201526e103937b632b9903337b91039b2b63360891b6064820152608401610653565b6107458282611463565b5050565b600080516020612b2183398151915261076281336113a6565b61076d60cb8361140a565b156107ab5760405162461bcd60e51b815260206004820152600e60248201526d08585b1c9958591e48185919195960921b6044820152606401610653565b6001600160a01b038216600090815260ce602052604090205460ff16806107eb57506001600160a01b03828116600090815260cd60205260409020541615155b6108555760405162461bcd60e51b815260206004820152603560248201527f2141646420617320737461626c65636f696e206f72207365742070616972207760448201527434ba341039ba30b13632b1b7b4b7103334b939ba1760591b6064820152608401610653565b61086060cb8361142c565b506040516001600160a01b038316907f65ddd50cf3377d82598edec30eaf7de0ffed6c947b8423e7fa5c4986d9f79f5190600090a25050565b60006104d760c961139c565b60008115610a575760006108bb838501856123bf565b604051630a04965760e41b8152600481018290529091506000906001600160a01b0388169063a04965709060240160206040518083038186803b15801561090157600080fd5b505afa158015610915573d6000803e3d6000fd5b505050506040513d601f19601f820116820180604052508101906109399190612546565b60405163bd85b03960e01b8152600481018490529091506000906001600160a01b0389169063bd85b0399060240160206040518083038186803b15801561097f57600080fd5b505afa158015610993573d6000803e3d6000fd5b505050506040513d601f19601f820116820180604052508101906109b79190612546565b6040516312520c1b60e31b8152600481018590529091506000906001600160a01b038a169063929060d89060240160c06040518083038186803b1580156109fd57600080fd5b505afa158015610a11573d6000803e3d6000fd5b505050506040513d601f19601f82011682018060405250810190610a359190612449565b80519950905081610a46848a612838565b610a50919061271b565b9750505050505b60cf5460405163e5e31b1360e01b81526001600160a01b0387811660048301529091169063e5e31b139060240160006040518083038186803b158015610a9c57600080fd5b505afa925050508015610aad575060015b610ab657610d11565b6000856001600160a01b0316630dfe16816040518163ffffffff1660e01b815260040160206040518083038186803b158015610af157600080fd5b505afa158015610b05573d6000803e3d6000fd5b505050506040513d601f19601f82011682018060405250810190610b299190612190565b90506000866001600160a01b031663d21220a76040518163ffffffff1660e01b815260040160206040518083038186803b158015610b6657600080fd5b505afa158015610b7a573d6000803e3d6000fd5b505050506040513d601f19601f82011682018060405250810190610b9e9190612190565b9050600080886001600160a01b0316630902f1ac6040518163ffffffff1660e01b815260040160606040518083038186803b158015610bdc57600080fd5b505afa158015610bf0573d6000803e3d6000fd5b505050506040513d601f19601f82011682018060405250810190610c1491906124f6565b506001600160701b031691506001600160701b031691506000896001600160a01b03166318160ddd6040518163ffffffff1660e01b815260040160206040518083038186803b158015610c6657600080fd5b505afa158015610c7a573d6000803e3d6000fd5b505050506040513d601f19601f82011682018060405250810190610c9e9190612546565b905080610cb357600095505050505050610d1e565b600081610cc0858c612838565b610cca919061271b565b9050600082610cd9858d612838565b610ce3919061271b565b9050610cef8682611485565b610cf98884611485565b610d039190612703565b975050505050505050610d1e565b610d1b8585611485565b90505b949350505050565b600080516020612b01833981519152610d3f81336113a6565b610d4a60c98361140a565b610d805760405162461bcd60e51b81526020600482015260076024820152662165786973747360c81b6044820152606401610653565b610d8b60c983611575565b506040516001600160a01b038316907fafa2737b2090fa39c66b7348625f0c03726240f724defbc6216d679506f9444190600090a25050565b600080516020612b21833981519152610ddd81336113a6565b6001600160a01b03838116600081815260cd602052604080822080546001600160a01b0319169487169485179055517f76d5c7f436b9108b7c934740e2e8f6b7a3537049baaaafebeeb32b4f1dbfce0a9190a3505050565b600080846001600160a01b031663313ce5676040518163ffffffff1660e01b815260040160206040518083038186803b158015610e7157600080fd5b505afa158015610e85573d6000803e3d6000fd5b505050506040513d601f19601f82011682018060405250810190610ea9919061255f565b60ff169050610ec485610ebd83600a612780565b86866108a5565b9150505b9392505050565b6000828152609760205260408120610ec89083611390565b60009182526065602090815260408084206001600160a01b0393909316845291905290205460ff1690565b600080516020612b21833981519152610f2b81336113a6565b610f3660c98361140a565b610f6c5760405162461bcd60e51b81526020600482015260076024820152662165786973747360c81b6044820152606401610653565b610f7760c983611575565b506040516001600160a01b038316907f71b8cbadd9731aedbb3246bd6204cafc764a2281e0d7443eab3986ee2304c75e90600090a25050565b600054610100900460ff1680610fc9575060005460ff16155b610fe55760405162461bcd60e51b81526004016106539061266e565b600054610100900460ff16158015611007576000805461ffff19166101011790555b61100f61158a565b61101a600083611616565b611032600080516020612b0183398151915283611616565b61104a600080516020612b2183398151915283611616565b60405161105690612078565b604051809103906000f080158015611072573d6000803e3d6000fd5b5060cf80546001600160a01b0319166001600160a01b03929092169190911790558015610745576000805461ff00191690555050565b60008181526097602052604081206104b89061139c565b606060008467ffffffffffffffff8111156110dc576110dc612912565b604051908082528060200260200182016040528015611105578160200160208202803683370190505b50905060005b8581101561123a576000878783818110611127576111276128fc565b905060200201602081019061113c9190612173565b6001600160a01b031663313ce5676040518163ffffffff1660e01b815260040160206040518083038186803b15801561117457600080fd5b505afa158015611188573d6000803e3d6000fd5b505050506040513d601f19601f820116820180604052508101906111ac919061255f565b60ff16905061120a8888848181106111c6576111c66128fc565b90506020020160208101906111db9190612173565b6111e683600a612780565b8888868181106111f8576111f86128fc565b90506020028101906102f591906126bc565b83838151811061121c5761121c6128fc565b60209081029190910101525080611232816128b5565b91505061110b565b5095945050505050565b60008281526065602052604090206001015461126081336113a6565b6106c68383611463565b606060008667ffffffffffffffff81111561128757611287612912565b6040519080825280602002602001820160405280156112b0578160200160208202803683370190505b50905060005b87811015611342576113138989838181106112d3576112d36128fc565b90506020020160208101906112e89190612173565b8888848181106112fa576112fa6128fc565b905060200201358787858181106111f8576111f86128fc565b828281518110611325576113256128fc565b60209081029190910101528061133a816128b5565b9150506112b6565b50979650505050505050565b60006104b860cb83611390565b60006001600160e01b03198216637965db0b60e01b14806104b857506301ffc9a760e01b6001600160e01b03198316146104b8565b6000610ec88383611620565b60006104b8825490565b6113b08282610ee7565b610745576113c8816001600160a01b0316601461164a565b6113d383602061164a565b6040516020016113e4929190612582565b60408051601f198184030181529082905262461bcd60e51b82526106539160040161263b565b6001600160a01b03811660009081526001830160205260408120541515610ec8565b6000610ec8836001600160a01b0384166117e6565b61144b8282611835565b60008281526097602052604090206106c6908261142c565b61146d82826118bb565b60008281526097602052604090206106c69082611575565b6001600160a01b038216600090815260ce6020908152604080832081518083019092525460ff808216158015845261010090920416928201929092529061151057806020015160ff166012146115065760208101516114e590600a61278c565b6114f784670de0b6b3a7640000612838565b611501919061271b565b611508565b825b9150506104b8565b6001600160a01b03808516600090815260cd6020526040902054168015611562576000806115486001600160a01b0384168888611922565b92505091506115578282611485565b9450505050506104b8565b61156c8585611afa565b95945050505050565b6000610ec8836001600160a01b038416611d10565b600054610100900460ff16806115a3575060005460ff16155b6115bf5760405162461bcd60e51b81526004016106539061266e565b600054610100900460ff161580156115e1576000805461ffff19166101011790555b6115e9611e03565b6115f1611e03565b6115f9611e03565b611601611e03565b8015611613576000805461ff00191690555b50565b6107458282611441565b6000826000018281548110611637576116376128fc565b9060005260206000200154905092915050565b60606000611659836002612838565b611664906002612703565b67ffffffffffffffff81111561167c5761167c612912565b6040519080825280601f01601f1916602001820160405280156116a6576020820181803683370190505b509050600360fc1b816000815181106116c1576116c16128fc565b60200101906001600160f81b031916908160001a905350600f60fb1b816001815181106116f0576116f06128fc565b60200101906001600160f81b031916908160001a9053506000611714846002612838565b61171f906001612703565b90505b6001811115611797576f181899199a1a9b1b9c1cb0b131b232b360811b85600f1660108110611753576117536128fc565b1a60f81b828281518110611769576117696128fc565b60200101906001600160f81b031916908160001a90535060049490941c936117908161289e565b9050611722565b508315610ec85760405162461bcd60e51b815260206004820181905260248201527f537472696e67733a20686578206c656e67746820696e73756666696369656e746044820152606401610653565b600081815260018301602052604081205461182d575081546001818101845560008481526020808220909301849055845484825282860190935260409020919091556104b8565b5060006104b8565b61183f8282610ee7565b6107455760008281526065602090815260408083206001600160a01b03851684529091529020805460ff191660011790556118773390565b6001600160a01b0316816001600160a01b0316837f2f8788117e7eff1d82e926ec794901d17c78024a50270940304540a733656f0d60405160405180910390a45050565b6118c58282610ee7565b156107455760008281526065602090815260408083206001600160a01b0385168085529252808320805460ff1916905551339285917ff6391f5c32d9c69d2a47ea670b442974b53935d1edc7fd64eb21e047a839171b9190a45050565b600080600080866001600160a01b031663d21220a76040518163ffffffff1660e01b815260040160206040518083038186803b15801561196157600080fd5b505afa158015611975573d6000803e3d6000fd5b505050506040513d601f19601f820116820180604052508101906119999190612190565b9050600080886001600160a01b0316630902f1ac6040518163ffffffff1660e01b815260040160606040518083038186803b1580156119d757600080fd5b505afa1580156119eb573d6000803e3d6000fd5b505050506040513d601f19601f82011682018060405250810190611a0f91906124f6565b506001600160701b031691506001600160701b03169150876001600160a01b0316836001600160a01b03161415611ab557886001600160a01b0316630dfe16816040518163ffffffff1660e01b815260040160206040518083038186803b158015611a7957600080fd5b505afa158015611a8d573d6000803e3d6000fd5b505050506040513d601f19601f82011682018060405250810190611ab19190612190565b9250905b60008215611ad75782611ac8838a612838565b611ad2919061271b565b611ada565b60005b905083611ae8898585611e6d565b909b909a509098509650505050505050565b6000808080805b611b0b60c961139c565b811015611cef576000611b1f60c983611390565b905060005b611b2e60cb61139c565b811015611cda576000611b4260cb83611390565b9050806001600160a01b03168a6001600160a01b03161415611b645750611cc8565b60405163e6a4390560e01b81526001600160a01b038b8116600483015282811660248301526000919085169063e6a439059060440160206040518083038186803b158015611bb157600080fd5b505afa158015611bc5573d6000803e3d6000fd5b505050506040513d601f19601f82011682018060405250810190611be99190612190565b90506001600160a01b038116611c00575050611cc8565b600080600080611c248f8f876001600160a01b0316611e9a9092919063ffffffff16565b93509350935093506000611c388484611485565b90506000611c468584611485565b9050611c528682612838565b611c5c908d612703565b9b50611c68828e612703565b9c50611c74868f612703565b9d508f600a611c839190612838565b8e101580611c9b575069021e19e0c9bab24000008d10155b15611cbf57611caa8e8d61271b565b9e5050505050505050505050505050506104b8565b50505050505050505b80611cd2816128b5565b915050611b24565b50508080611ce7906128b5565b915050611b01565b5082611cfc576000611d06565b611d06838261271b565b9695505050505050565b60008181526001830160205260408120548015611df9576000611d34600183612857565b8554909150600090611d4890600190612857565b9050818114611dad576000866000018281548110611d6857611d686128fc565b9060005260206000200154905080876000018481548110611d8b57611d8b6128fc565b6000918252602080832090910192909255918252600188019052604090208390555b8554869080611dbe57611dbe6128e6565b6001900381819060005260206000200160009055905585600101600086815260200190815260200160002060009055600193505050506104b8565b60009150506104b8565b600054610100900460ff1680611e1c575060005460ff16155b611e385760405162461bcd60e51b81526004016106539061266e565b600054610100900460ff16158015611601576000805461ffff19166101011790558015611613576000805461ff001916905550565b600082611e7c57506000610ec8565b611e868484612703565b611e908386612838565b610d1e919061271b565b6000806000806000876001600160a01b031663d21220a76040518163ffffffff1660e01b815260040160206040518083038186803b158015611edb57600080fd5b505afa158015611eef573d6000803e3d6000fd5b505050506040513d601f19601f82011682018060405250810190611f139190612190565b9050600080896001600160a01b0316630902f1ac6040518163ffffffff1660e01b815260040160606040518083038186803b158015611f5157600080fd5b505afa158015611f65573d6000803e3d6000fd5b505050506040513d601f19601f82011682018060405250810190611f8991906124f6565b506001600160701b031691506001600160701b03169150886001600160a01b0316836001600160a01b0316141561202f57896001600160a01b0316630dfe16816040518163ffffffff1660e01b815260040160206040518083038186803b158015611ff357600080fd5b505afa158015612007573d6000803e3d6000fd5b505050506040513d601f19601f8201168201806040525081019061202b9190612190565b9250905b600082156120515782612042838b612838565b61204c919061271b565b612054565b60005b905082846120638b8686611e6d565b91995097509550935050505093509350935093565b6101b58061294c83390190565b60008083601f84011261209757600080fd5b50813567ffffffffffffffff8111156120af57600080fd5b6020830191508360208260051b85010111156120ca57600080fd5b9250929050565b80516120dc8161293d565b919050565b60008083601f8401126120f357600080fd5b50813567ffffffffffffffff81111561210b57600080fd5b6020830191508360208285010111156120ca57600080fd5b80516120dc81612928565b80516001600160701b03811681146120dc57600080fd5b805161ffff811681146120dc57600080fd5b80516bffffffffffffffffffffffff811681146120dc57600080fd5b60006020828403121561218557600080fd5b8135610ec881612928565b6000602082840312156121a257600080fd5b8151610ec881612928565b600080604083850312156121c057600080fd5b82356121cb81612928565b915060208301356121db8161293d565b809150509250929050565b6000806000604084860312156121fb57600080fd5b833561220681612928565b9250602084013567ffffffffffffffff81111561222257600080fd5b61222e868287016120e1565b9497909650939450505050565b6000806040838503121561224e57600080fd5b823561225981612928565b915060208301356121db81612928565b6000806000806060858703121561227f57600080fd5b843561228a81612928565b935060208501359250604085013567ffffffffffffffff8111156122ad57600080fd5b6122b9878288016120e1565b95989497509550505050565b600080600080604085870312156122db57600080fd5b843567ffffffffffffffff808211156122f357600080fd5b6122ff88838901612085565b9096509450602087013591508082111561231857600080fd5b506122b987828801612085565b6000806000806000806060878903121561233e57600080fd5b863567ffffffffffffffff8082111561235657600080fd5b6123628a838b01612085565b9098509650602089013591508082111561237b57600080fd5b6123878a838b01612085565b909650945060408901359150808211156123a057600080fd5b506123ad89828a01612085565b979a9699509497509295939492505050565b6000602082840312156123d157600080fd5b5035919050565b600080604083850312156123eb57600080fd5b8235915060208301356121db81612928565b6000806040838503121561241057600080fd5b50508035926020909101359150565b60006020828403121561243157600080fd5b81356001600160e01b031981168114610ec857600080fd5b600060c0828403121561245b57600080fd5b60405160c0810181811067ffffffffffffffff8211171561248c57634e487b7160e01b600052604160045260246000fd5b60405261249883612123565b81526124a660208401612157565b60208201526124b760408401612123565b60408201526124c860608401612145565b60608201526124d9608084016120d1565b60808201526124ea60a084016120d1565b60a08201529392505050565b60008060006060848603121561250b57600080fd5b6125148461212e565b92506125226020850161212e565b9150604084015163ffffffff8116811461253b57600080fd5b809150509250925092565b60006020828403121561255857600080fd5b5051919050565b60006020828403121561257157600080fd5b815160ff81168114610ec857600080fd5b7f416363657373436f6e74726f6c3a206163636f756e74200000000000000000008152600083516125ba81601785016020880161286e565b7001034b99036b4b9b9b4b733903937b6329607d1b60179184019182015283516125eb81602884016020880161286e565b01602801949350505050565b6020808252825182820181905260009190848201906040850190845b8181101561262f57835183529284019291840191600101612613565b50909695505050505050565b602081526000825180602084015261265a81604085016020870161286e565b601f01601f19169190910160400192915050565b6020808252602e908201527f496e697469616c697a61626c653a20636f6e747261637420697320616c72656160408201526d191e481a5b9a5d1a585b1a5e995960921b606082015260800190565b6000808335601e198436030181126126d357600080fd5b83018035915067ffffffffffffffff8211156126ee57600080fd5b6020019150368190038213156120ca57600080fd5b60008219821115612716576127166128d0565b500190565b60008261273857634e487b7160e01b600052601260045260246000fd5b500490565b600181815b8085111561277857816000190482111561275e5761275e6128d0565b8085161561276b57918102915b93841c9390800290612742565b509250929050565b6000610ec88383612797565b6000610ec860ff8416835b6000826127a6575060016104b8565b816127b3575060006104b8565b81600181146127c957600281146127d3576127ef565b60019150506104b8565b60ff8411156127e4576127e46128d0565b50506001821b6104b8565b5060208310610133831016604e8410600b8410161715612812575081810a6104b8565b61281c838361273d565b8060001904821115612830576128306128d0565b029392505050565b6000816000190483118215151615612852576128526128d0565b500290565b600082821015612869576128696128d0565b500390565b60005b83811015612889578181015183820152602001612871565b83811115612898576000848401525b50505050565b6000816128ad576128ad6128d0565b506000190190565b60006000198214156128c9576128c96128d0565b5060010190565b634e487b7160e01b600052601160045260246000fd5b634e487b7160e01b600052603160045260246000fd5b634e487b7160e01b600052603260045260246000fd5b634e487b7160e01b600052604160045260246000fd5b6001600160a01b038116811461161357600080fd5b801515811461161357600080fdfe608060405234801561001057600080fd5b50610195806100206000396000f3fe608060405234801561001057600080fd5b506004361061002b5760003560e01c8063e5e31b1314610030575b600080fd5b61004361003e3660046100df565b610045565b005b806001600160a01b0316630902f1ac6040518163ffffffff1660e01b815260040160606040518083038186803b15801561007e57600080fd5b505afa158015610092573d6000803e3d6000fd5b505050506040513d601f19601f820116820180604052508101906100b6919061010f565b50505050565b80516dffffffffffffffffffffffffffff811681146100da57600080fd5b919050565b6000602082840312156100f157600080fd5b81356001600160a01b038116811461010857600080fd5b9392505050565b60008060006060848603121561012457600080fd5b61012d846100bc565b925061013b602085016100bc565b9150604084015163ffffffff8116811461015457600080fd5b80915050925092509256fea26469706673582212203158f6c62e740730b7168ea8716d582f5e2274357e914f2305c505ac309e77f764736f6c63430008060033ad6046625976df65390784e1468d8079825cbbf88f7c6b2da3f12871b375c79f44aabcfc5881ba432c01a4847f5a748ae4b67aec352e00a6358dc53f52464ffda2646970667358221220d7926cc14144b9f996f942bb9588dff43308afa183060ea5658eb99e4f4bc7be64736f6c63430008060033",
  "devdoc": {
    "kind": "dev",
    "methods": {
      "getRoleAdmin(bytes32)": {
        "details": "Returns the admin role that controls `role`. See {grantRole} and {revokeRole}. To change a role's admin, use {_setRoleAdmin}."
      },
      "getRoleMember(bytes32,uint256)": {
        "details": "Returns one of the accounts that have `role`. `index` must be a value between 0 and {getRoleMemberCount}, non-inclusive. Role bearers are not sorted in any particular way, and their ordering may change at any point. WARNING: When using {getRoleMember} and {getRoleMemberCount}, make sure you perform all queries on the same block. See the following https://forum.openzeppelin.com/t/iterating-over-elements-on-enumerableset-in-openzeppelin-contracts/2296[forum post] for more information."
      },
      "getRoleMemberCount(bytes32)": {
        "details": "Returns the number of accounts that have `role`. Can be used together with {getRoleMember} to enumerate all bearers of a role."
      },
      "getValue(address,uint256,bytes)": {
        "params": {
          "metadata": "Can contain metadata about non ERC20 assets, like the token id of erc1155."
        }
      },
      "grantRole(bytes32,address)": {
        "details": "Grants `role` to `account`. If `account` had not been already granted `role`, emits a {RoleGranted} event. Requirements: - the caller must have ``role``'s admin role."
      },
      "hasRole(bytes32,address)": {
        "details": "Returns `true` if `account` has been granted `role`."
      },
      "renounceRole(bytes32,address)": {
        "details": "Revokes `role` from the calling account. Roles are often managed via {grantRole} and {revokeRole}: this function's purpose is to provide a mechanism for accounts to lose their privileges if they are compromised (such as when a trusted device is misplaced). If the calling account had been revoked `role`, emits a {RoleRevoked} event. Requirements: - the caller must be `account`."
      },
      "revokeRole(bytes32,address)": {
        "details": "Revokes `role` from `account`. If `account` had been granted `role`, emits a {RoleRevoked} event. Requirements: - the caller must have ``role``'s admin role."
      },
      "supportsInterface(bytes4)": {
        "details": "See {IERC165-supportsInterface}."
      }
    },
    "stateVariables": {
      "SET_FACTORY_ROLE": {
        "details": "Management roles"
      },
      "VERSION": {
        "details": "Simple identifier for internal parties. We reserve the right to make breaking changes without upgrading the VERSION."
      },
      "factories": {
        "details": "An enumerable list of all registered factories."
      },
      "mainAssets": {
        "details": "An enumerable list of all registered factories."
      },
      "overridenPairForToken": {
        "details": "Forces usage of the specified pair for calculating the first step of the value calculation."
      },
      "pairChecker": {
        "details": "Utility contract that throws if the provided address is not a pair, used because simple try-catch is insufficient due to it still reverting on wrong return data (and I'm too lazy for a low-level call)."
      },
      "stablecoins": {
        "details": "Information about a coin being a stablecoin. Everything is eventually routed to a stablecoin."
      }
    },
    "version": 1
  },
  "userdoc": {
    "kind": "user",
    "methods": {
      "addFactory(address)": {
        "notice": "** Factories *///"
      },
      "addMainAsset(address)": {
        "notice": "** Main assets *///"
      },
      "getPrice(address,bytes)": {
        "notice": "Returns the dollar value of the `amount` of one full unit (10**decimals) of `asset` at the current spot price. Returned value is in 1e18."
      },
      "getPrices(address[],bytes[])": {
        "notice": "Calls getPrice for all provided assets. Input parameters must be equal length."
      },
      "getValue(address,uint256,bytes)": {
        "notice": "Returns the dollar value of the `amount` of `asset` at the current spot price. Returned value is in 1e18."
      },
      "getValues(address[],uint256[],bytes[])": {
        "notice": "calls getValue for all provided assets. Input parameters must be equal length."
      }
    },
    "version": 1
  },
  "storageLayout": {
    "storage": [
      {
        "astId": 596,
        "contract": "contracts/PricerHandlerV1.sol:PricerHandlerV1",
        "label": "_initialized",
        "offset": 0,
        "slot": "0",
        "type": "t_bool"
      },
      {
        "astId": 599,
        "contract": "contracts/PricerHandlerV1.sol:PricerHandlerV1",
        "label": "_initializing",
        "offset": 1,
        "slot": "0",
        "type": "t_bool"
      },
      {
        "astId": 679,
        "contract": "contracts/PricerHandlerV1.sol:PricerHandlerV1",
        "label": "__gap",
        "offset": 0,
        "slot": "1",
        "type": "t_array(t_uint256)50_storage"
      },
      {
        "astId": 928,
        "contract": "contracts/PricerHandlerV1.sol:PricerHandlerV1",
        "label": "__gap",
        "offset": 0,
        "slot": "51",
        "type": "t_array(t_uint256)50_storage"
      },
      {
        "astId": 204,
        "contract": "contracts/PricerHandlerV1.sol:PricerHandlerV1",
        "label": "_roles",
        "offset": 0,
        "slot": "101",
        "type": "t_mapping(t_bytes32,t_struct(RoleData)199_storage)"
      },
      {
        "astId": 491,
        "contract": "contracts/PricerHandlerV1.sol:PricerHandlerV1",
        "label": "__gap",
        "offset": 0,
        "slot": "102",
        "type": "t_array(t_uint256)49_storage"
      },
      {
        "astId": 45,
        "contract": "contracts/PricerHandlerV1.sol:PricerHandlerV1",
        "label": "_roleMembers",
        "offset": 0,
        "slot": "151",
        "type": "t_mapping(t_bytes32,t_struct(AddressSet)1253_storage)"
      },
      {
        "astId": 154,
        "contract": "contracts/PricerHandlerV1.sol:PricerHandlerV1",
        "label": "__gap",
        "offset": 0,
        "slot": "152",
        "type": "t_array(t_uint256)49_storage"
      },
      {
        "astId": 5133,
        "contract": "contracts/PricerHandlerV1.sol:PricerHandlerV1",
        "label": "factories",
        "offset": 0,
        "slot": "201",
        "type": "t_struct(AddressSet)3989_storage"
      },
      {
        "astId": 5137,
        "contract": "contracts/PricerHandlerV1.sol:PricerHandlerV1",
        "label": "mainAssets",
        "offset": 0,
        "slot": "203",
        "type": "t_struct(AddressSet)3989_storage"
      },
      {
        "astId": 5143,
        "contract": "contracts/PricerHandlerV1.sol:PricerHandlerV1",
        "label": "overridenPairForToken",
        "offset": 0,
        "slot": "205",
        "type": "t_mapping(t_address,t_contract(IUniswapV2Pair)4581)"
      },
      {
        "astId": 5149,
        "contract": "contracts/PricerHandlerV1.sol:PricerHandlerV1",
        "label": "stablecoins",
        "offset": 0,
        "slot": "206",
        "type": "t_mapping(t_address,t_struct(StableCoinInfo)5129_storage)"
      },
      {
        "astId": 5164,
        "contract": "contracts/PricerHandlerV1.sol:PricerHandlerV1",
        "label": "pairChecker",
        "offset": 0,
        "slot": "207",
        "type": "t_contract(PairChecker)6031"
      }
    ],
    "types": {
      "t_address": {
        "encoding": "inplace",
        "label": "address",
        "numberOfBytes": "20"
      },
      "t_array(t_bytes32)dyn_storage": {
        "base": "t_bytes32",
        "encoding": "dynamic_array",
        "label": "bytes32[]",
        "numberOfBytes": "32"
      },
      "t_array(t_uint256)49_storage": {
        "base": "t_uint256",
        "encoding": "inplace",
        "label": "uint256[49]",
        "numberOfBytes": "1568"
      },
      "t_array(t_uint256)50_storage": {
        "base": "t_uint256",
        "encoding": "inplace",
        "label": "uint256[50]",
        "numberOfBytes": "1600"
      },
      "t_bool": {
        "encoding": "inplace",
        "label": "bool",
        "numberOfBytes": "1"
      },
      "t_bytes32": {
        "encoding": "inplace",
        "label": "bytes32",
        "numberOfBytes": "32"
      },
      "t_contract(IUniswapV2Pair)4581": {
        "encoding": "inplace",
        "label": "contract IUniswapV2Pair",
        "numberOfBytes": "20"
      },
      "t_contract(PairChecker)6031": {
        "encoding": "inplace",
        "label": "contract PairChecker",
        "numberOfBytes": "20"
      },
      "t_mapping(t_address,t_bool)": {
        "encoding": "mapping",
        "key": "t_address",
        "label": "mapping(address => bool)",
        "numberOfBytes": "32",
        "value": "t_bool"
      },
      "t_mapping(t_address,t_contract(IUniswapV2Pair)4581)": {
        "encoding": "mapping",
        "key": "t_address",
        "label": "mapping(address => contract IUniswapV2Pair)",
        "numberOfBytes": "32",
        "value": "t_contract(IUniswapV2Pair)4581"
      },
      "t_mapping(t_address,t_struct(StableCoinInfo)5129_storage)": {
        "encoding": "mapping",
        "key": "t_address",
        "label": "mapping(address => struct PricerHandlerV1.StableCoinInfo)",
        "numberOfBytes": "32",
        "value": "t_struct(StableCoinInfo)5129_storage"
      },
      "t_mapping(t_bytes32,t_struct(AddressSet)1253_storage)": {
        "encoding": "mapping",
        "key": "t_bytes32",
        "label": "mapping(bytes32 => struct EnumerableSetUpgradeable.AddressSet)",
        "numberOfBytes": "32",
        "value": "t_struct(AddressSet)1253_storage"
      },
      "t_mapping(t_bytes32,t_struct(RoleData)199_storage)": {
        "encoding": "mapping",
        "key": "t_bytes32",
        "label": "mapping(bytes32 => struct AccessControlUpgradeable.RoleData)",
        "numberOfBytes": "32",
        "value": "t_struct(RoleData)199_storage"
      },
      "t_mapping(t_bytes32,t_uint256)": {
        "encoding": "mapping",
        "key": "t_bytes32",
        "label": "mapping(bytes32 => uint256)",
        "numberOfBytes": "32",
        "value": "t_uint256"
      },
      "t_struct(AddressSet)1253_storage": {
        "encoding": "inplace",
        "label": "struct EnumerableSetUpgradeable.AddressSet",
        "members": [
          {
            "astId": 1252,
            "contract": "contracts/PricerHandlerV1.sol:PricerHandlerV1",
            "label": "_inner",
            "offset": 0,
            "slot": "0",
            "type": "t_struct(Set)952_storage"
          }
        ],
        "numberOfBytes": "64"
      },
      "t_struct(AddressSet)3989_storage": {
        "encoding": "inplace",
        "label": "struct EnumerableSet.AddressSet",
        "members": [
          {
            "astId": 3988,
            "contract": "contracts/PricerHandlerV1.sol:PricerHandlerV1",
            "label": "_inner",
            "offset": 0,
            "slot": "0",
            "type": "t_struct(Set)3688_storage"
          }
        ],
        "numberOfBytes": "64"
      },
      "t_struct(RoleData)199_storage": {
        "encoding": "inplace",
        "label": "struct AccessControlUpgradeable.RoleData",
        "members": [
          {
            "astId": 196,
            "contract": "contracts/PricerHandlerV1.sol:PricerHandlerV1",
            "label": "members",
            "offset": 0,
            "slot": "0",
            "type": "t_mapping(t_address,t_bool)"
          },
          {
            "astId": 198,
            "contract": "contracts/PricerHandlerV1.sol:PricerHandlerV1",
            "label": "adminRole",
            "offset": 0,
            "slot": "1",
            "type": "t_bytes32"
          }
        ],
        "numberOfBytes": "64"
      },
      "t_struct(Set)3688_storage": {
        "encoding": "inplace",
        "label": "struct EnumerableSet.Set",
        "members": [
          {
            "astId": 3683,
            "contract": "contracts/PricerHandlerV1.sol:PricerHandlerV1",
            "label": "_values",
            "offset": 0,
            "slot": "0",
            "type": "t_array(t_bytes32)dyn_storage"
          },
          {
            "astId": 3687,
            "contract": "contracts/PricerHandlerV1.sol:PricerHandlerV1",
            "label": "_indexes",
            "offset": 0,
            "slot": "1",
            "type": "t_mapping(t_bytes32,t_uint256)"
          }
        ],
        "numberOfBytes": "64"
      },
      "t_struct(Set)952_storage": {
        "encoding": "inplace",
        "label": "struct EnumerableSetUpgradeable.Set",
        "members": [
          {
            "astId": 947,
            "contract": "contracts/PricerHandlerV1.sol:PricerHandlerV1",
            "label": "_values",
            "offset": 0,
            "slot": "0",
            "type": "t_array(t_bytes32)dyn_storage"
          },
          {
            "astId": 951,
            "contract": "contracts/PricerHandlerV1.sol:PricerHandlerV1",
            "label": "_indexes",
            "offset": 0,
            "slot": "1",
            "type": "t_mapping(t_bytes32,t_uint256)"
          }
        ],
        "numberOfBytes": "64"
      },
      "t_struct(StableCoinInfo)5129_storage": {
        "encoding": "inplace",
        "label": "struct PricerHandlerV1.StableCoinInfo",
        "members": [
          {
            "astId": 5126,
            "contract": "contracts/PricerHandlerV1.sol:PricerHandlerV1",
            "label": "set",
            "offset": 0,
            "slot": "0",
            "type": "t_bool"
          },
          {
            "astId": 5128,
            "contract": "contracts/PricerHandlerV1.sol:PricerHandlerV1",
            "label": "decimals",
            "offset": 1,
            "slot": "0",
            "type": "t_uint8"
          }
        ],
        "numberOfBytes": "32"
      },
      "t_uint256": {
        "encoding": "inplace",
        "label": "uint256",
        "numberOfBytes": "32"
      },
      "t_uint8": {
        "encoding": "inplace",
        "label": "uint8",
        "numberOfBytes": "1"
      }
    }
  }
}