{
  "address": "0x393c80eD875eDe4dc9da8E5C9CA8959c5A36d6b4",
  "abi": [
    {
      "inputs": [
        {
          "internalType": "address",
          "name": "_owner",
          "type": "address"
        }
      ],
      "stateMutability": "nonpayable",
      "type": "constructor"
    },
    {
      "anonymous": false,
      "inputs": [
        {
          "indexed": true,
          "internalType": "contract IPricer",
          "name": "oldImplementation",
          "type": "address"
        },
        {
          "indexed": true,
          "internalType": "contract IPricer",
          "name": "newImplementation",
          "type": "address"
        }
      ],
      "name": "ImplementationChanged",
      "type": "event"
    },
    {
      "anonymous": false,
      "inputs": [
        {
          "indexed": true,
          "internalType": "address",
          "name": "previousOwner",
          "type": "address"
        },
        {
          "indexed": true,
          "internalType": "address",
          "name": "newOwner",
          "type": "address"
        }
      ],
      "name": "OwnershipTransferred",
      "type": "event"
    },
    {
      "anonymous": false,
      "inputs": [
        {
          "indexed": true,
          "internalType": "address",
          "name": "previousPendingOwner",
          "type": "address"
        },
        {
          "indexed": true,
          "internalType": "address",
          "name": "newPendingOwner",
          "type": "address"
        }
      ],
      "name": "PendingOwnershipTransferred",
      "type": "event"
    },
    {
      "inputs": [
        {
          "internalType": "address",
          "name": "asset",
          "type": "address"
        },
        {
          "internalType": "bytes",
          "name": "metadata",
          "type": "bytes"
        }
      ],
      "name": "getPrice",
      "outputs": [
        {
          "internalType": "uint256",
          "name": "",
          "type": "uint256"
        }
      ],
      "stateMutability": "view",
      "type": "function"
    },
    {
      "inputs": [
        {
          "internalType": "address[]",
          "name": "assets",
          "type": "address[]"
        },
        {
          "internalType": "bytes[]",
          "name": "metadata",
          "type": "bytes[]"
        }
      ],
      "name": "getPrices",
      "outputs": [
        {
          "internalType": "uint256[]",
          "name": "",
          "type": "uint256[]"
        }
      ],
      "stateMutability": "view",
      "type": "function"
    },
    {
      "inputs": [
        {
          "internalType": "address",
          "name": "asset",
          "type": "address"
        },
        {
          "internalType": "uint256",
          "name": "amount",
          "type": "uint256"
        },
        {
          "internalType": "bytes",
          "name": "metadata",
          "type": "bytes"
        }
      ],
      "name": "getValue",
      "outputs": [
        {
          "internalType": "uint256",
          "name": "",
          "type": "uint256"
        }
      ],
      "stateMutability": "view",
      "type": "function"
    },
    {
      "inputs": [
        {
          "internalType": "address[]",
          "name": "assets",
          "type": "address[]"
        },
        {
          "internalType": "uint256[]",
          "name": "amounts",
          "type": "uint256[]"
        },
        {
          "internalType": "bytes[]",
          "name": "metadata",
          "type": "bytes[]"
        }
      ],
      "name": "getValues",
      "outputs": [
        {
          "internalType": "uint256[]",
          "name": "",
          "type": "uint256[]"
        }
      ],
      "stateMutability": "view",
      "type": "function"
    },
    {
      "inputs": [],
      "name": "implementation",
      "outputs": [
        {
          "internalType": "contract IPricer",
          "name": "",
          "type": "address"
        }
      ],
      "stateMutability": "view",
      "type": "function"
    },
    {
      "inputs": [],
      "name": "owner",
      "outputs": [
        {
          "internalType": "address",
          "name": "",
          "type": "address"
        }
      ],
      "stateMutability": "view",
      "type": "function"
    },
    {
      "inputs": [],
      "name": "pendingOwner",
      "outputs": [
        {
          "internalType": "address",
          "name": "",
          "type": "address"
        }
      ],
      "stateMutability": "view",
      "type": "function"
    },
    {
      "inputs": [],
      "name": "renounceOwnership",
      "outputs": [],
      "stateMutability": "nonpayable",
      "type": "function"
    },
    {
      "inputs": [
        {
          "internalType": "contract IPricer",
          "name": "_implementation",
          "type": "address"
        }
      ],
      "name": "setImplementation",
      "outputs": [],
      "stateMutability": "nonpayable",
      "type": "function"
    },
    {
      "inputs": [
        {
          "internalType": "address",
          "name": "newPendingOwner",
          "type": "address"
        }
      ],
      "name": "setPendingOwner",
      "outputs": [],
      "stateMutability": "nonpayable",
      "type": "function"
    },
    {
      "inputs": [],
      "name": "transferOwnership",
      "outputs": [],
      "stateMutability": "nonpayable",
      "type": "function"
    }
  ],
  "transactionHash": "0x9f1e22759219743574e2c41f0953696ba9345f179682e168ccf7279e3d254f4a",
  "args": [
    "0xa66745F0092F7460F107E4c66C224553bF4Cd727"
  ],
  "solcInputHash": "947ca64d07a9324843b8615b78da14fd",
  "bytecode": "0x608060405234801561001057600080fd5b50604051610d50380380610d5083398101604081905261002f916100a1565b61003833610047565b61004181610047565b506100d1565b600080546001600160a01b038381166001600160a01b031980841682178555600180549091169055604051919092169283917f8be0079c531659141344cd1fd0a4f28419497f9722a3daafe3b4186f6b6457e09190a35050565b6000602082840312156100b357600080fd5b81516001600160a01b03811681146100ca57600080fd5b9392505050565b610c70806100e06000396000f3fe608060405234801561001057600080fd5b50600436106100a95760003560e01c80638da5cb5b116100715780638da5cb5b14610124578063c42069ec14610135578063cfa26d9414610148578063d62cdd1714610168578063d784d4261461017b578063e30c39781461018e57600080fd5b80634b3617ae146100ae5780635c60da1b146100d4578063715018a6146100ff578063880ad0af146101095780638ac06f5014610111575b600080fd5b6100c16100bc36600461076a565b6101a1565b6040519081526020015b60405180910390f35b6002546100e7906001600160a01b031681565b6040516001600160a01b0390911681526020016100cb565b610107610231565b005b610107610270565b6100c161011f366004610715565b61035f565b6000546001600160a01b03166100e7565b6101076101433660046106f1565b6103ec565b61015b6101563660046107c6565b610468565b6040516100cb9190610b93565b61015b610176366004610826565b6104f3565b6101076101893660046106f1565b61058d565b6001546100e7906001600160a01b031681565b60025460405163259b0bd760e11b81526000916001600160a01b031690634b3617ae906101d8908890889088908890600401610aca565b60206040518083038186803b1580156101f057600080fd5b505afa158015610204573d6000803e3d6000fd5b505050506040513d601f19601f820116820180604052508101906102289190610985565b95945050505050565b6000546001600160a01b031633146102645760405162461bcd60e51b815260040161025b90610bd7565b60405180910390fd5b61026e6000610609565b565b6001546001600160a01b0316336001600160a01b0316146102e35760405162461bcd60e51b815260206004820152602760248201527f4f776e61626c653a2063616c6c6572206973206e6f74207468652070656e64696044820152663733a7bbb732b960c91b606482015260840161025b565b6001546001600160a01b031661034a5760405162461bcd60e51b815260206004820152602660248201527f4f776e61626c653a206e6577206f776e657220697320746865207a65726f206160448201526564647265737360d01b606482015260840161025b565b60015461026e906001600160a01b0316610609565b6002546040516308ac06f560e41b81526000916001600160a01b031690638ac06f509061039490879087908790600401610aa5565b60206040518083038186803b1580156103ac57600080fd5b505afa1580156103c0573d6000803e3d6000fd5b505050506040513d601f19601f820116820180604052508101906103e49190610985565b949350505050565b6000546001600160a01b031633146104165760405162461bcd60e51b815260040161025b90610bd7565b600180546001600160a01b038381166001600160a01b0319831681179093556040519116919082907f1e1c2f9f5b763f63f56cae5a9a406c263521f324917ae0fe29e5cf9955e81ec890600090a35050565b6002546040516333e89b6560e21b81526060916001600160a01b03169063cfa26d949061049f908890889088908890600401610afc565b60006040518083038186803b1580156104b757600080fd5b505afa1580156104cb573d6000803e3d6000fd5b505050506040513d6000823e601f3d908101601f1916820160405261022891908101906108c0565b60025460405163d62cdd1760e01b81526060916001600160a01b03169063d62cdd179061052e908a908a908a908a908a908a90600401610b23565b60006040518083038186803b15801561054657600080fd5b505afa15801561055a573d6000803e3d6000fd5b505050506040513d6000823e601f3d908101601f1916820160405261058291908101906108c0565b979650505050505050565b6000546001600160a01b031633146105b75760405162461bcd60e51b815260040161025b90610bd7565b600280546001600160a01b038381166001600160a01b0319831681179093556040519116919082907fcfbf4028add9318bbf716f08c348595afb063b0e9feed1f86d33681a4b3ed4d390600090a35050565b600080546001600160a01b038381166001600160a01b031980841682178555600180549091169055604051919092169283917f8be0079c531659141344cd1fd0a4f28419497f9722a3daafe3b4186f6b6457e09190a35050565b60008083601f84011261067557600080fd5b50813567ffffffffffffffff81111561068d57600080fd5b6020830191508360208260051b85010111156106a857600080fd5b9250929050565b60008083601f8401126106c157600080fd5b50813567ffffffffffffffff8111156106d957600080fd5b6020830191508360208285010111156106a857600080fd5b60006020828403121561070357600080fd5b813561070e81610c22565b9392505050565b60008060006040848603121561072a57600080fd5b833561073581610c22565b9250602084013567ffffffffffffffff81111561075157600080fd5b61075d868287016106af565b9497909650939450505050565b6000806000806060858703121561078057600080fd5b843561078b81610c22565b935060208501359250604085013567ffffffffffffffff8111156107ae57600080fd5b6107ba878288016106af565b95989497509550505050565b600080600080604085870312156107dc57600080fd5b843567ffffffffffffffff808211156107f457600080fd5b61080088838901610663565b9096509450602087013591508082111561081957600080fd5b506107ba87828801610663565b6000806000806000806060878903121561083f57600080fd5b863567ffffffffffffffff8082111561085757600080fd5b6108638a838b01610663565b9098509650602089013591508082111561087c57600080fd5b6108888a838b01610663565b909650945060408901359150808211156108a157600080fd5b506108ae89828a01610663565b979a9699509497509295939492505050565b600060208083850312156108d357600080fd5b825167ffffffffffffffff808211156108eb57600080fd5b818501915085601f8301126108ff57600080fd5b81518181111561091157610911610c0c565b8060051b604051601f19603f8301168101818110858211171561093657610936610c0c565b604052828152858101935084860182860187018a101561095557600080fd5b600095505b8386101561097857805185526001959095019493860193860161095a565b5098975050505050505050565b60006020828403121561099757600080fd5b5051919050565b8183526000602080850194508260005b858110156109dc5781356109c181610c22565b6001600160a01b0316875295820195908201906001016109ae565b509495945050505050565b60008383855260208086019550808560051b8301018460005b87811015610a6f57848303601f19018952813536889003601e19018112610a2657600080fd5b8701803567ffffffffffffffff811115610a3f57600080fd5b803603891315610a4e57600080fd5b610a5b8582888501610a7c565b9a86019a9450505090830190600101610a00565b5090979650505050505050565b81835281816020850137506000828201602090810191909152601f909101601f19169091010190565b6001600160a01b03841681526040602082018190526000906102289083018486610a7c565b60018060a01b0385168152836020820152606060408201526000610af2606083018486610a7c565b9695505050505050565b604081526000610b1060408301868861099e565b82810360208401526105828185876109e7565b606081526000610b3760608301888a61099e565b82810360208401528581526001600160fb1b03861115610b5657600080fd5b8560051b8088602084013780820191505060208101600081526020848303016040850152610b858186886109e7565b9a9950505050505050505050565b6020808252825182820181905260009190848201906040850190845b81811015610bcb57835183529284019291840191600101610baf565b50909695505050505050565b6020808252818101527f4f776e61626c653a2063616c6c6572206973206e6f7420746865206f776e6572604082015260600190565b634e487b7160e01b600052604160045260246000fd5b6001600160a01b0381168114610c3757600080fd5b5056fea26469706673582212204250828cb6905fd6577d6aa2eb225e5119420e6cb9d8814b2f7f64e5b91cd4cc64736f6c63430008060033",
  "devdoc": {
    "details": "It forwards all requests blindly to the implementation, this allows the implementation to change over time.",
    "kind": "dev",
    "methods": {
      "getValue(address,uint256,bytes)": {
        "params": {
          "metadata": "Can contain metadata about non ERC20 assets, like the token id of erc1155."
        }
      },
      "owner()": {
        "details": "Returns the address of the current owner."
      },
      "renounceOwnership()": {
        "details": "Leaves the contract without owner. It will not be possible to call `onlyOwner` functions anymore. Can only be called by the current owner. NOTE: Renouncing ownership will leave the contract without an owner, thereby removing any functionality that is only available to the owner."
      },
      "setImplementation(address)": {
        "details": "Can only be called by the contract owner.",
        "params": {
          "_implementation": "The new implementation."
        }
      },
      "setPendingOwner(address)": {
        "details": "Sets the pendingOwner, ownership is only transferred when they call transferOwnership. Can only be called by the current owner."
      },
      "transferOwnership()": {
        "details": "Transfers ownership of the contract to the pendingOwner. Can only be called by the pendingOwner."
      }
    },
    "stateVariables": {
      "implementation": {
        "details": "The implementation that actually executes the pricing requests."
      }
    },
    "version": 1
  },
  "userdoc": {
    "kind": "user",
    "methods": {
      "getPrice(address,bytes)": {
        "notice": "Returns the dollar value of the `amount` of one full unit (10^decimals) of `asset` at the current spot price. Returned value is in 1e18."
      },
      "getPrices(address[],bytes[])": {
        "notice": "Calls getPrice for all provided assets. Input parameters must be equal length."
      },
      "getValue(address,uint256,bytes)": {
        "notice": "Returns the dollar value of the `amount` of `asset` at the current spot price. Returned value is in 1e18."
      },
      "getValues(address[],uint256[],bytes[])": {
        "notice": "calls getValue for all provided assets. Input parameters must be equal length."
      },
      "setImplementation(address)": {
        "notice": "Sets the underlying implementation that fulfills the swap orders."
      }
    },
    "notice": "The Pricer allows contracts and frontends to efficiently fetch asset prices.Initially it is only meant to fetch ERC-20 prices but over time the metadata parameter could be used to allow for different types of assets like ERC-1155.",
    "version": 1
  },
  "storageLayout": {
    "storage": [
      {
        "astId": 6033,
        "contract": "contracts/Pricer.sol:Pricer",
        "label": "_owner",
        "offset": 0,
        "slot": "0",
        "type": "t_address"
      },
      {
        "astId": 6035,
        "contract": "contracts/Pricer.sol:Pricer",
        "label": "pendingOwner",
        "offset": 0,
        "slot": "1",
        "type": "t_address"
      },
      {
        "astId": 4971,
        "contract": "contracts/Pricer.sol:Pricer",
        "label": "implementation",
        "offset": 0,
        "slot": "2",
        "type": "t_contract(IPricer)6227"
      }
    ],
    "types": {
      "t_address": {
        "encoding": "inplace",
        "label": "address",
        "numberOfBytes": "20"
      },
      "t_contract(IPricer)6227": {
        "encoding": "inplace",
        "label": "contract IPricer",
        "numberOfBytes": "20"
      }
    }
  }
}