{
  "address": "0x3444E5Ec105c1E4beb3ee8a9E714bF07fD53819E",
  "abi": [
    {
      "anonymous": false,
      "inputs": [
        {
          "indexed": true,
          "internalType": "address",
          "name": "factory",
          "type": "address"
        }
      ],
      "name": "FactoryAdded",
      "type": "event"
    },
    {
      "anonymous": false,
      "inputs": [
        {
          "indexed": true,
          "internalType": "address",
          "name": "factory",
          "type": "address"
        }
      ],
      "name": "FactoryRemoved",
      "type": "event"
    },
    {
      "anonymous": false,
      "inputs": [
        {
          "indexed": true,
          "internalType": "address",
          "name": "mainAsset",
          "type": "address"
        }
      ],
      "name": "MainAssetAdded",
      "type": "event"
    },
    {
      "anonymous": false,
      "inputs": [
        {
          "indexed": true,
          "internalType": "address",
          "name": "mainAsset",
          "type": "address"
        }
      ],
      "name": "MainAssetRemoved",
      "type": "event"
    },
    {
      "anonymous": false,
      "inputs": [
        {
          "indexed": true,
          "internalType": "address",
          "name": "asset",
          "type": "address"
        },
        {
          "indexed": true,
          "internalType": "contract IUniswapV2Pair",
          "name": "pair",
          "type": "address"
        }
      ],
      "name": "OverridenPairSet",
      "type": "event"
    },
    {
      "anonymous": false,
      "inputs": [
        {
          "indexed": true,
          "internalType": "bytes32",
          "name": "role",
          "type": "bytes32"
        },
        {
          "indexed": true,
          "internalType": "bytes32",
          "name": "previousAdminRole",
          "type": "bytes32"
        },
        {
          "indexed": true,
          "internalType": "bytes32",
          "name": "newAdminRole",
          "type": "bytes32"
        }
      ],
      "name": "RoleAdminChanged",
      "type": "event"
    },
    {
      "anonymous": false,
      "inputs": [
        {
          "indexed": true,
          "internalType": "bytes32",
          "name": "role",
          "type": "bytes32"
        },
        {
          "indexed": true,
          "internalType": "address",
          "name": "account",
          "type": "address"
        },
        {
          "indexed": true,
          "internalType": "address",
          "name": "sender",
          "type": "address"
        }
      ],
      "name": "RoleGranted",
      "type": "event"
    },
    {
      "anonymous": false,
      "inputs": [
        {
          "indexed": true,
          "internalType": "bytes32",
          "name": "role",
          "type": "bytes32"
        },
        {
          "indexed": true,
          "internalType": "address",
          "name": "account",
          "type": "address"
        },
        {
          "indexed": true,
          "internalType": "address",
          "name": "sender",
          "type": "address"
        }
      ],
      "name": "RoleRevoked",
      "type": "event"
    },
    {
      "anonymous": false,
      "inputs": [
        {
          "indexed": true,
          "internalType": "address",
          "name": "stablecoin",
          "type": "address"
        },
        {
          "indexed": true,
          "internalType": "bool",
          "name": "set",
          "type": "bool"
        }
      ],
      "name": "StableCoinSet",
      "type": "event"
    },
    {
      "inputs": [],
      "name": "DEFAULT_ADMIN_ROLE",
      "outputs": [
        {
          "internalType": "bytes32",
          "name": "",
          "type": "bytes32"
        }
      ],
      "stateMutability": "view",
      "type": "function"
    },
    {
      "inputs": [],
      "name": "SET_ASSET_ROLE",
      "outputs": [
        {
          "internalType": "bytes32",
          "name": "",
          "type": "bytes32"
        }
      ],
      "stateMutability": "view",
      "type": "function"
    },
    {
      "inputs": [],
      "name": "SET_FACTORY_ROLE",
      "outputs": [
        {
          "internalType": "bytes32",
          "name": "",
          "type": "bytes32"
        }
      ],
      "stateMutability": "view",
      "type": "function"
    },
    {
      "inputs": [],
      "name": "VERSION",
      "outputs": [
        {
          "internalType": "uint256",
          "name": "",
          "type": "uint256"
        }
      ],
      "stateMutability": "view",
      "type": "function"
    },
    {
      "inputs": [
        {
          "internalType": "address",
          "name": "_factory",
          "type": "address"
        }
      ],
      "name": "addFactory",
      "outputs": [],
      "stateMutability": "nonpayable",
      "type": "function"
    },
    {
      "inputs": [
        {
          "internalType": "address",
          "name": "_mainAsset",
          "type": "address"
        }
      ],
      "name": "addMainAsset",
      "outputs": [],
      "stateMutability": "nonpayable",
      "type": "function"
    },
    {
      "inputs": [
        {
          "internalType": "uint256",
          "name": "index",
          "type": "uint256"
        }
      ],
      "name": "factoryAt",
      "outputs": [
        {
          "internalType": "address",
          "name": "",
          "type": "address"
        }
      ],
      "stateMutability": "view",
      "type": "function"
    },
    {
      "inputs": [],
      "name": "factoryLength",
      "outputs": [
        {
          "internalType": "uint256",
          "name": "",
          "type": "uint256"
        }
      ],
      "stateMutability": "view",
      "type": "function"
    },
    {
      "inputs": [
        {
          "internalType": "address",
          "name": "asset",
          "type": "address"
        },
        {
          "internalType": "bytes",
          "name": "metadata",
          "type": "bytes"
        }
      ],
      "name": "getPrice",
      "outputs": [
        {
          "internalType": "uint256",
          "name": "",
          "type": "uint256"
        }
      ],
      "stateMutability": "view",
      "type": "function"
    },
    {
      "inputs": [
        {
          "internalType": "address[]",
          "name": "assets",
          "type": "address[]"
        },
        {
          "internalType": "bytes[]",
          "name": "metadata",
          "type": "bytes[]"
        }
      ],
      "name": "getPrices",
      "outputs": [
        {
          "internalType": "uint256[]",
          "name": "",
          "type": "uint256[]"
        }
      ],
      "stateMutability": "view",
      "type": "function"
    },
    {
      "inputs": [
        {
          "internalType": "bytes32",
          "name": "role",
          "type": "bytes32"
        }
      ],
      "name": "getRoleAdmin",
      "outputs": [
        {
          "internalType": "bytes32",
          "name": "",
          "type": "bytes32"
        }
      ],
      "stateMutability": "view",
      "type": "function"
    },
    {
      "inputs": [
        {
          "internalType": "bytes32",
          "name": "role",
          "type": "bytes32"
        },
        {
          "internalType": "uint256",
          "name": "index",
          "type": "uint256"
        }
      ],
      "name": "getRoleMember",
      "outputs": [
        {
          "internalType": "address",
          "name": "",
          "type": "address"
        }
      ],
      "stateMutability": "view",
      "type": "function"
    },
    {
      "inputs": [
        {
          "internalType": "bytes32",
          "name": "role",
          "type": "bytes32"
        }
      ],
      "name": "getRoleMemberCount",
      "outputs": [
        {
          "internalType": "uint256",
          "name": "",
          "type": "uint256"
        }
      ],
      "stateMutability": "view",
      "type": "function"
    },
    {
      "inputs": [
        {
          "internalType": "address",
          "name": "asset",
          "type": "address"
        },
        {
          "internalType": "uint256",
          "name": "amount",
          "type": "uint256"
        },
        {
          "internalType": "bytes",
          "name": "metadata",
          "type": "bytes"
        }
      ],
      "name": "getValue",
      "outputs": [
        {
          "internalType": "uint256",
          "name": "",
          "type": "uint256"
        }
      ],
      "stateMutability": "view",
      "type": "function"
    },
    {
      "inputs": [
        {
          "internalType": "address[]",
          "name": "assets",
          "type": "address[]"
        },
        {
          "internalType": "uint256[]",
          "name": "amounts",
          "type": "uint256[]"
        },
        {
          "internalType": "bytes[]",
          "name": "metadata",
          "type": "bytes[]"
        }
      ],
      "name": "getValues",
      "outputs": [
        {
          "internalType": "uint256[]",
          "name": "",
          "type": "uint256[]"
        }
      ],
      "stateMutability": "view",
      "type": "function"
    },
    {
      "inputs": [
        {
          "internalType": "bytes32",
          "name": "role",
          "type": "bytes32"
        },
        {
          "internalType": "address",
          "name": "account",
          "type": "address"
        }
      ],
      "name": "grantRole",
      "outputs": [],
      "stateMutability": "nonpayable",
      "type": "function"
    },
    {
      "inputs": [
        {
          "internalType": "bytes32",
          "name": "role",
          "type": "bytes32"
        },
        {
          "internalType": "address",
          "name": "account",
          "type": "address"
        }
      ],
      "name": "hasRole",
      "outputs": [
        {
          "internalType": "bool",
          "name": "",
          "type": "bool"
        }
      ],
      "stateMutability": "view",
      "type": "function"
    },
    {
      "inputs": [
        {
          "internalType": "address",
          "name": "_owner",
          "type": "address"
        }
      ],
      "name": "initialize",
      "outputs": [],
      "stateMutability": "nonpayable",
      "type": "function"
    },
    {
      "inputs": [
        {
          "internalType": "uint256",
          "name": "index",
          "type": "uint256"
        }
      ],
      "name": "mainAssetAt",
      "outputs": [
        {
          "internalType": "address",
          "name": "",
          "type": "address"
        }
      ],
      "stateMutability": "view",
      "type": "function"
    },
    {
      "inputs": [],
      "name": "mainAssetLength",
      "outputs": [
        {
          "internalType": "uint256",
          "name": "",
          "type": "uint256"
        }
      ],
      "stateMutability": "view",
      "type": "function"
    },
    {
      "inputs": [
        {
          "internalType": "address",
          "name": "",
          "type": "address"
        }
      ],
      "name": "overridenPairForToken",
      "outputs": [
        {
          "internalType": "contract IUniswapV2Pair",
          "name": "",
          "type": "address"
        }
      ],
      "stateMutability": "view",
      "type": "function"
    },
    {
      "inputs": [],
      "name": "pairChecker",
      "outputs": [
        {
          "internalType": "contract PairChecker",
          "name": "",
          "type": "address"
        }
      ],
      "stateMutability": "view",
      "type": "function"
    },
    {
      "inputs": [
        {
          "internalType": "address",
          "name": "_factory",
          "type": "address"
        }
      ],
      "name": "removeFactory",
      "outputs": [],
      "stateMutability": "nonpayable",
      "type": "function"
    },
    {
      "inputs": [
        {
          "internalType": "address",
          "name": "_mainAsset",
          "type": "address"
        }
      ],
      "name": "removeMainAsset",
      "outputs": [],
      "stateMutability": "nonpayable",
      "type": "function"
    },
    {
      "inputs": [
        {
          "internalType": "bytes32",
          "name": "role",
          "type": "bytes32"
        },
        {
          "internalType": "address",
          "name": "account",
          "type": "address"
        }
      ],
      "name": "renounceRole",
      "outputs": [],
      "stateMutability": "nonpayable",
      "type": "function"
    },
    {
      "inputs": [
        {
          "internalType": "bytes32",
          "name": "role",
          "type": "bytes32"
        },
        {
          "internalType": "address",
          "name": "account",
          "type": "address"
        }
      ],
      "name": "revokeRole",
      "outputs": [],
      "stateMutability": "nonpayable",
      "type": "function"
    },
    {
      "inputs": [
        {
          "internalType": "address",
          "name": "asset",
          "type": "address"
        },
        {
          "internalType": "contract IUniswapV2Pair",
          "name": "pair",
          "type": "address"
        }
      ],
      "name": "setOverridenPair",
      "outputs": [],
      "stateMutability": "nonpayable",
      "type": "function"
    },
    {
      "inputs": [
        {
          "internalType": "address",
          "name": "stablecoin",
          "type": "address"
        },
        {
          "internalType": "bool",
          "name": "set",
          "type": "bool"
        }
      ],
      "name": "setStablecoin",
      "outputs": [],
      "stateMutability": "nonpayable",
      "type": "function"
    },
    {
      "inputs": [
        {
          "internalType": "address",
          "name": "",
          "type": "address"
        }
      ],
      "name": "stablecoins",
      "outputs": [
        {
          "internalType": "bool",
          "name": "set",
          "type": "bool"
        },
        {
          "internalType": "uint8",
          "name": "decimals",
          "type": "uint8"
        }
      ],
      "stateMutability": "view",
      "type": "function"
    },
    {
      "inputs": [
        {
          "internalType": "bytes4",
          "name": "interfaceId",
          "type": "bytes4"
        }
      ],
      "name": "supportsInterface",
      "outputs": [
        {
          "internalType": "bool",
          "name": "",
          "type": "bool"
        }
      ],
      "stateMutability": "view",
      "type": "function"
    }
  ],
  "transactionHash": "0xf6a60fb711b7cf50be6825bac06e04da42922efcfe9729e4c9e0387e820d2ee4",
  "args": [],
  "solcInputHash": "947ca64d07a9324843b8615b78da14fd",
  "bytecode": "0x608060405234801561001057600080fd5b50612b3e806100206000396000f3fe608060405234801561001057600080fd5b50600436106101da5760003560e01c80639010d07c11610104578063cfa26d94116100a2578063df7697d211610071578063df7697d214610408578063e9d57a8714610431578063fa84783614610446578063ffa1ad741461048b57600080fd5b8063cfa26d94146103af578063d547741f146103cf578063d62cdd17146103e2578063dbe288b4146103f557600080fd5b8063a760b08a116100de578063a760b08a14610361578063c4d66de814610374578063c89b88e314610387578063ca15c8731461039c57600080fd5b80639010d07c1461033357806391d1485414610346578063a217fddf1461035957600080fd5b80632f2ff15d1161017c5780634b3617ae1161014b5780634b3617ae146102e75780634b37c73f146102fa5780637bfcdc641461030d5780638ac06f501461032057600080fd5b80632f2ff15d146102a657806336568abe146102b95780633e1aceb8146102cc578063470f4985146102df57600080fd5b80631603a174116101b85780631603a174146102455780631ccbf9081461025b578063248a9ca31461027057806329ce1ec51461029357600080fd5b806301ffc9a7146101df578063089b51221461020757806309666e3914610232575b600080fd5b6101f26101ed3660046123e7565b610493565b60405190151581526020015b60405180910390f35b60cf5461021a906001600160a01b031681565b6040516001600160a01b0390911681526020016101fe565b61021a610240366004612387565b6104be565b61024d6104cb565b6040519081526020016101fe565b61026e610269366004612175565b6104dc565b005b61024d61027e366004612387565b60009081526065602052604090206001015490565b61026e6102a136600461213b565b6105f5565b61026e6102b43660046123a0565b6106a0565b61026e6102c73660046123a0565b6106cb565b61026e6102da36600461213b565b610749565b61024d610899565b61024d6102f5366004612231565b6108a5565b61026e61030836600461213b565b610d13565b61026e61031b366004612203565b610db1565b61024d61032e3660046121ae565b610e22565b61021a6103413660046123c5565b610ebc565b6101f26103543660046123a0565b610ed4565b61024d600081565b61026e61036f36600461213b565b610eff565b61026e61038236600461213b565b610f9d565b61024d600080516020612ac983398151915281565b61024d6103aa366004612387565b611095565b6103c26103bd36600461228d565b6110ac565b6040516101fe91906125bf565b61026e6103dd3660046123a0565b611231565b6103c26103f03660046122ed565b611257565b61021a610403366004612387565b61133b565b61021a61041636600461213b565b60cd602052600090815260409020546001600160a01b031681565b61024d600080516020612ae983398151915281565b61047261045436600461213b565b60ce6020526000908152604090205460ff8082169161010090041682565b60408051921515835260ff9091166020830152016101fe565b61024d600181565b60006001600160e01b03198216635a05180f60e01b14806104b857506104b882611348565b92915050565b60006104b860c98361137d565b60006104d760cb611389565b905090565b600080516020612ae98339815191526104f58133611393565b60405180604001604052808315158152602001846001600160a01b031663313ce5676040518163ffffffff1660e01b815260040160206040518083038186803b15801561054157600080fd5b505afa158015610555573d6000803e3d6000fd5b505050506040513d601f19601f820116820180604052508101906105799190612527565b60ff9081169091526001600160a01b038516600081815260ce602090815260408083208651815497909301519095166101000261ff00199215159290921661ffff199096169590951717909255915184151592917ffa3d03fdbb5c58a9dbb070320f30076f20061ef3e48f1ac41f11fc3e043c007c91a3505050565b600080516020612ac983398151915261060e8133611393565b61061960c9836113f7565b1561065c5760405162461bcd60e51b815260206004820152600e60248201526d08585b1c9958591e48185919195960921b60448201526064015b60405180910390fd5b61066760c983611419565b506040516001600160a01b038316907f6fdc0147105e43e21da80a75b42d0fd464060d5e1a34b0cefbf0b4ccfc2e36a190600090a25050565b6000828152606560205260409020600101546106bc8133611393565b6106c6838361142e565b505050565b6001600160a01b038116331461073b5760405162461bcd60e51b815260206004820152602f60248201527f416363657373436f6e74726f6c3a2063616e206f6e6c792072656e6f756e636560448201526e103937b632b9903337b91039b2b63360891b6064820152608401610653565b6107458282611450565b5050565b600080516020612ae98339815191526107628133611393565b61076d60cb836113f7565b156107ab5760405162461bcd60e51b815260206004820152600e60248201526d08585b1c9958591e48185919195960921b6044820152606401610653565b6001600160a01b038216600090815260ce602052604090205460ff16806107eb57506001600160a01b03828116600090815260cd60205260409020541615155b6108555760405162461bcd60e51b815260206004820152603560248201527f2141646420617320737461626c65636f696e206f72207365742070616972207760448201527434ba341039ba30b13632b1b7b4b7103334b939ba1760591b6064820152608401610653565b61086060cb83611419565b506040516001600160a01b038316907f65ddd50cf3377d82598edec30eaf7de0ffed6c947b8423e7fa5c4986d9f79f5190600090a25050565b60006104d760c9611389565b60008115610a575760006108bb83850185612387565b604051630a04965760e41b8152600481018290529091506000906001600160a01b0388169063a04965709060240160206040518083038186803b15801561090157600080fd5b505afa158015610915573d6000803e3d6000fd5b505050506040513d601f19601f82011682018060405250810190610939919061250e565b60405163bd85b03960e01b8152600481018490529091506000906001600160a01b0389169063bd85b0399060240160206040518083038186803b15801561097f57600080fd5b505afa158015610993573d6000803e3d6000fd5b505050506040513d601f19601f820116820180604052508101906109b7919061250e565b6040516312520c1b60e31b8152600481018590529091506000906001600160a01b038a169063929060d89060240160c06040518083038186803b1580156109fd57600080fd5b505afa158015610a11573d6000803e3d6000fd5b505050506040513d601f19601f82011682018060405250810190610a359190612411565b80519950905081610a46848a612800565b610a5091906126e3565b9750505050505b60cf5460405163e5e31b1360e01b81526001600160a01b0387811660048301529091169063e5e31b139060240160006040518083038186803b158015610a9c57600080fd5b505afa925050508015610aad575060015b610ab657610cfe565b6000856001600160a01b0316630dfe16816040518163ffffffff1660e01b815260040160206040518083038186803b158015610af157600080fd5b505afa158015610b05573d6000803e3d6000fd5b505050506040513d601f19601f82011682018060405250810190610b299190612158565b90506000866001600160a01b031663d21220a76040518163ffffffff1660e01b815260040160206040518083038186803b158015610b6657600080fd5b505afa158015610b7a573d6000803e3d6000fd5b505050506040513d601f19601f82011682018060405250810190610b9e9190612158565b9050600080886001600160a01b0316630902f1ac6040518163ffffffff1660e01b815260040160606040518083038186803b158015610bdc57600080fd5b505afa158015610bf0573d6000803e3d6000fd5b505050506040513d601f19601f82011682018060405250810190610c1491906124be565b506001600160701b031691506001600160701b031691506000896001600160a01b03166318160ddd6040518163ffffffff1660e01b815260040160206040518083038186803b158015610c6657600080fd5b505afa158015610c7a573d6000803e3d6000fd5b505050506040513d601f19601f82011682018060405250810190610c9e919061250e565b9050600081610cad858c612800565b610cb791906126e3565b9050600082610cc6858d612800565b610cd091906126e3565b9050610cdc8682611472565b610ce68884611472565b610cf091906126cb565b975050505050505050610d0b565b610d088585611472565b90505b949350505050565b600080516020612ac9833981519152610d2c8133611393565b610d3760c9836113f7565b610d6d5760405162461bcd60e51b81526020600482015260076024820152662165786973747360c81b6044820152606401610653565b610d7860c983611562565b506040516001600160a01b038316907fafa2737b2090fa39c66b7348625f0c03726240f724defbc6216d679506f9444190600090a25050565b600080516020612ae9833981519152610dca8133611393565b6001600160a01b03838116600081815260cd602052604080822080546001600160a01b0319169487169485179055517f76d5c7f436b9108b7c934740e2e8f6b7a3537049baaaafebeeb32b4f1dbfce0a9190a3505050565b600080846001600160a01b031663313ce5676040518163ffffffff1660e01b815260040160206040518083038186803b158015610e5e57600080fd5b505afa158015610e72573d6000803e3d6000fd5b505050506040513d601f19601f82011682018060405250810190610e969190612527565b60ff169050610eb185610eaa83600a612748565b86866108a5565b9150505b9392505050565b6000828152609760205260408120610eb5908361137d565b60009182526065602090815260408084206001600160a01b0393909316845291905290205460ff1690565b600080516020612ae9833981519152610f188133611393565b610f2360c9836113f7565b610f595760405162461bcd60e51b81526020600482015260076024820152662165786973747360c81b6044820152606401610653565b610f6460c983611562565b506040516001600160a01b038316907f71b8cbadd9731aedbb3246bd6204cafc764a2281e0d7443eab3986ee2304c75e90600090a25050565b600054610100900460ff1680610fb6575060005460ff16155b610fd25760405162461bcd60e51b815260040161065390612636565b600054610100900460ff16158015610ff4576000805461ffff19166101011790555b610ffc611577565b611007600083611603565b61101f600080516020612ac983398151915283611603565b611037600080516020612ae983398151915283611603565b60405161104390612040565b604051809103906000f08015801561105f573d6000803e3d6000fd5b5060cf80546001600160a01b0319166001600160a01b03929092169190911790558015610745576000805461ff00191690555050565b60008181526097602052604081206104b890611389565b606060008467ffffffffffffffff8111156110c9576110c96128da565b6040519080825280602002602001820160405280156110f2578160200160208202803683370190505b50905060005b85811015611227576000878783818110611114576111146128c4565b9050602002016020810190611129919061213b565b6001600160a01b031663313ce5676040518163ffffffff1660e01b815260040160206040518083038186803b15801561116157600080fd5b505afa158015611175573d6000803e3d6000fd5b505050506040513d601f19601f820116820180604052508101906111999190612527565b60ff1690506111f78888848181106111b3576111b36128c4565b90506020020160208101906111c8919061213b565b6111d383600a612748565b8888868181106111e5576111e56128c4565b90506020028101906102f59190612684565b838381518110611209576112096128c4565b6020908102919091010152508061121f8161287d565b9150506110f8565b5095945050505050565b60008281526065602052604090206001015461124d8133611393565b6106c68383611450565b606060008667ffffffffffffffff811115611274576112746128da565b60405190808252806020026020018201604052801561129d578160200160208202803683370190505b50905060005b8781101561132f576113008989838181106112c0576112c06128c4565b90506020020160208101906112d5919061213b565b8888848181106112e7576112e76128c4565b905060200201358787858181106111e5576111e56128c4565b828281518110611312576113126128c4565b6020908102919091010152806113278161287d565b9150506112a3565b50979650505050505050565b60006104b860cb8361137d565b60006001600160e01b03198216637965db0b60e01b14806104b857506301ffc9a760e01b6001600160e01b03198316146104b8565b6000610eb5838361160d565b60006104b8825490565b61139d8282610ed4565b610745576113b5816001600160a01b03166014611637565b6113c0836020611637565b6040516020016113d192919061254a565b60408051601f198184030181529082905262461bcd60e51b825261065391600401612603565b6001600160a01b03811660009081526001830160205260408120541515610eb5565b6000610eb5836001600160a01b0384166117d3565b6114388282611822565b60008281526097602052604090206106c69082611419565b61145a82826118a8565b60008281526097602052604090206106c69082611562565b6001600160a01b038216600090815260ce6020908152604080832081518083019092525460ff80821615801584526101009092041692820192909252906114fd57806020015160ff166012146114f35760208101516114d290600a612754565b6114e484670de0b6b3a7640000612800565b6114ee91906126e3565b6114f5565b825b9150506104b8565b6001600160a01b03808516600090815260cd602052604090205416801561154f576000806115356001600160a01b038416888861190f565b92505091506115448282611472565b9450505050506104b8565b6115598585611ad5565b95945050505050565b6000610eb5836001600160a01b038416611ceb565b600054610100900460ff1680611590575060005460ff16155b6115ac5760405162461bcd60e51b815260040161065390612636565b600054610100900460ff161580156115ce576000805461ffff19166101011790555b6115d6611dde565b6115de611dde565b6115e6611dde565b6115ee611dde565b8015611600576000805461ff00191690555b50565b610745828261142e565b6000826000018281548110611624576116246128c4565b9060005260206000200154905092915050565b60606000611646836002612800565b6116519060026126cb565b67ffffffffffffffff811115611669576116696128da565b6040519080825280601f01601f191660200182016040528015611693576020820181803683370190505b509050600360fc1b816000815181106116ae576116ae6128c4565b60200101906001600160f81b031916908160001a905350600f60fb1b816001815181106116dd576116dd6128c4565b60200101906001600160f81b031916908160001a9053506000611701846002612800565b61170c9060016126cb565b90505b6001811115611784576f181899199a1a9b1b9c1cb0b131b232b360811b85600f1660108110611740576117406128c4565b1a60f81b828281518110611756576117566128c4565b60200101906001600160f81b031916908160001a90535060049490941c9361177d81612866565b905061170f565b508315610eb55760405162461bcd60e51b815260206004820181905260248201527f537472696e67733a20686578206c656e67746820696e73756666696369656e746044820152606401610653565b600081815260018301602052604081205461181a575081546001818101845560008481526020808220909301849055845484825282860190935260409020919091556104b8565b5060006104b8565b61182c8282610ed4565b6107455760008281526065602090815260408083206001600160a01b03851684529091529020805460ff191660011790556118643390565b6001600160a01b0316816001600160a01b0316837f2f8788117e7eff1d82e926ec794901d17c78024a50270940304540a733656f0d60405160405180910390a45050565b6118b28282610ed4565b156107455760008281526065602090815260408083206001600160a01b0385168085529252808320805460ff1916905551339285917ff6391f5c32d9c69d2a47ea670b442974b53935d1edc7fd64eb21e047a839171b9190a45050565b600080600080866001600160a01b031663d21220a76040518163ffffffff1660e01b815260040160206040518083038186803b15801561194e57600080fd5b505afa158015611962573d6000803e3d6000fd5b505050506040513d601f19601f820116820180604052508101906119869190612158565b9050600080886001600160a01b0316630902f1ac6040518163ffffffff1660e01b815260040160606040518083038186803b1580156119c457600080fd5b505afa1580156119d8573d6000803e3d6000fd5b505050506040513d601f19601f820116820180604052508101906119fc91906124be565b506001600160701b031691506001600160701b03169150876001600160a01b0316836001600160a01b03161415611aa257886001600160a01b0316630dfe16816040518163ffffffff1660e01b815260040160206040518083038186803b158015611a6657600080fd5b505afa158015611a7a573d6000803e3d6000fd5b505050506040513d601f19601f82011682018060405250810190611a9e9190612158565b9250905b82611aae888484611e48565b83611ab9848b612800565b611ac391906126e3565b95509550955050505093509350939050565b6000808080805b611ae660c9611389565b811015611cca576000611afa60c98361137d565b905060005b611b0960cb611389565b811015611cb5576000611b1d60cb8361137d565b9050806001600160a01b03168a6001600160a01b03161415611b3f5750611ca3565b60405163e6a4390560e01b81526001600160a01b038b8116600483015282811660248301526000919085169063e6a439059060440160206040518083038186803b158015611b8c57600080fd5b505afa158015611ba0573d6000803e3d6000fd5b505050506040513d601f19601f82011682018060405250810190611bc49190612158565b90506001600160a01b038116611bdb575050611ca3565b600080600080611bff8f8f876001600160a01b0316611e759092919063ffffffff16565b93509350935093506000611c138484611472565b90506000611c218584611472565b9050611c2d8682612800565b611c37908d6126cb565b9b50611c43828e6126cb565b9c50611c4f868f6126cb565b9d508f600a611c5e9190612800565b8e101580611c76575069021e19e0c9bab24000008d10155b15611c9a57611c858e8d6126e3565b9e5050505050505050505050505050506104b8565b50505050505050505b80611cad8161287d565b915050611aff565b50508080611cc29061287d565b915050611adc565b5082611cd7576000611ce1565b611ce183826126e3565b9695505050505050565b60008181526001830160205260408120548015611dd4576000611d0f60018361281f565b8554909150600090611d239060019061281f565b9050818114611d88576000866000018281548110611d4357611d436128c4565b9060005260206000200154905080876000018481548110611d6657611d666128c4565b6000918252602080832090910192909255918252600188019052604090208390555b8554869080611d9957611d996128ae565b6001900381819060005260206000200160009055905585600101600086815260200190815260200160002060009055600193505050506104b8565b60009150506104b8565b600054610100900460ff1680611df7575060005460ff16155b611e135760405162461bcd60e51b815260040161065390612636565b600054610100900460ff161580156115ee576000805461ffff19166101011790558015611600576000805461ff001916905550565b600082611e5757506000610eb5565b611e6184846126cb565b611e6b8386612800565b610d0b91906126e3565b6000806000806000876001600160a01b031663d21220a76040518163ffffffff1660e01b815260040160206040518083038186803b158015611eb657600080fd5b505afa158015611eca573d6000803e3d6000fd5b505050506040513d601f19601f82011682018060405250810190611eee9190612158565b9050600080896001600160a01b0316630902f1ac6040518163ffffffff1660e01b815260040160606040518083038186803b158015611f2c57600080fd5b505afa158015611f40573d6000803e3d6000fd5b505050506040513d601f19601f82011682018060405250810190611f6491906124be565b506001600160701b031691506001600160701b03169150886001600160a01b0316836001600160a01b0316141561200a57896001600160a01b0316630dfe16816040518163ffffffff1660e01b815260040160206040518083038186803b158015611fce57600080fd5b505afa158015611fe2573d6000803e3d6000fd5b505050506040513d601f19601f820116820180604052508101906120069190612158565b9250905b81836120178a8585611e48565b84612022858d612800565b61202c91906126e3565b965096509650965050505093509350935093565b6101b58061291483390190565b60008083601f84011261205f57600080fd5b50813567ffffffffffffffff81111561207757600080fd5b6020830191508360208260051b850101111561209257600080fd5b9250929050565b80516120a481612905565b919050565b60008083601f8401126120bb57600080fd5b50813567ffffffffffffffff8111156120d357600080fd5b60208301915083602082850101111561209257600080fd5b80516120a4816128f0565b80516001600160701b03811681146120a457600080fd5b805161ffff811681146120a457600080fd5b80516bffffffffffffffffffffffff811681146120a457600080fd5b60006020828403121561214d57600080fd5b8135610eb5816128f0565b60006020828403121561216a57600080fd5b8151610eb5816128f0565b6000806040838503121561218857600080fd5b8235612193816128f0565b915060208301356121a381612905565b809150509250929050565b6000806000604084860312156121c357600080fd5b83356121ce816128f0565b9250602084013567ffffffffffffffff8111156121ea57600080fd5b6121f6868287016120a9565b9497909650939450505050565b6000806040838503121561221657600080fd5b8235612221816128f0565b915060208301356121a3816128f0565b6000806000806060858703121561224757600080fd5b8435612252816128f0565b935060208501359250604085013567ffffffffffffffff81111561227557600080fd5b612281878288016120a9565b95989497509550505050565b600080600080604085870312156122a357600080fd5b843567ffffffffffffffff808211156122bb57600080fd5b6122c78883890161204d565b909650945060208701359150808211156122e057600080fd5b506122818782880161204d565b6000806000806000806060878903121561230657600080fd5b863567ffffffffffffffff8082111561231e57600080fd5b61232a8a838b0161204d565b9098509650602089013591508082111561234357600080fd5b61234f8a838b0161204d565b9096509450604089013591508082111561236857600080fd5b5061237589828a0161204d565b979a9699509497509295939492505050565b60006020828403121561239957600080fd5b5035919050565b600080604083850312156123b357600080fd5b8235915060208301356121a3816128f0565b600080604083850312156123d857600080fd5b50508035926020909101359150565b6000602082840312156123f957600080fd5b81356001600160e01b031981168114610eb557600080fd5b600060c0828403121561242357600080fd5b60405160c0810181811067ffffffffffffffff8211171561245457634e487b7160e01b600052604160045260246000fd5b604052612460836120eb565b815261246e6020840161211f565b602082015261247f604084016120eb565b60408201526124906060840161210d565b60608201526124a160808401612099565b60808201526124b260a08401612099565b60a08201529392505050565b6000806000606084860312156124d357600080fd5b6124dc846120f6565b92506124ea602085016120f6565b9150604084015163ffffffff8116811461250357600080fd5b809150509250925092565b60006020828403121561252057600080fd5b5051919050565b60006020828403121561253957600080fd5b815160ff81168114610eb557600080fd5b7f416363657373436f6e74726f6c3a206163636f756e7420000000000000000000815260008351612582816017850160208801612836565b7001034b99036b4b9b9b4b733903937b6329607d1b60179184019182015283516125b3816028840160208801612836565b01602801949350505050565b6020808252825182820181905260009190848201906040850190845b818110156125f7578351835292840192918401916001016125db565b50909695505050505050565b6020815260008251806020840152612622816040850160208701612836565b601f01601f19169190910160400192915050565b6020808252602e908201527f496e697469616c697a61626c653a20636f6e747261637420697320616c72656160408201526d191e481a5b9a5d1a585b1a5e995960921b606082015260800190565b6000808335601e1984360301811261269b57600080fd5b83018035915067ffffffffffffffff8211156126b657600080fd5b60200191503681900382131561209257600080fd5b600082198211156126de576126de612898565b500190565b60008261270057634e487b7160e01b600052601260045260246000fd5b500490565b600181815b8085111561274057816000190482111561272657612726612898565b8085161561273357918102915b93841c939080029061270a565b509250929050565b6000610eb5838361275f565b6000610eb560ff8416835b60008261276e575060016104b8565b8161277b575060006104b8565b8160018114612791576002811461279b576127b7565b60019150506104b8565b60ff8411156127ac576127ac612898565b50506001821b6104b8565b5060208310610133831016604e8410600b84101617156127da575081810a6104b8565b6127e48383612705565b80600019048211156127f8576127f8612898565b029392505050565b600081600019048311821515161561281a5761281a612898565b500290565b60008282101561283157612831612898565b500390565b60005b83811015612851578181015183820152602001612839565b83811115612860576000848401525b50505050565b60008161287557612875612898565b506000190190565b600060001982141561289157612891612898565b5060010190565b634e487b7160e01b600052601160045260246000fd5b634e487b7160e01b600052603160045260246000fd5b634e487b7160e01b600052603260045260246000fd5b634e487b7160e01b600052604160045260246000fd5b6001600160a01b038116811461160057600080fd5b801515811461160057600080fdfe608060405234801561001057600080fd5b50610195806100206000396000f3fe608060405234801561001057600080fd5b506004361061002b5760003560e01c8063e5e31b1314610030575b600080fd5b61004361003e3660046100df565b610045565b005b806001600160a01b0316630902f1ac6040518163ffffffff1660e01b815260040160606040518083038186803b15801561007e57600080fd5b505afa158015610092573d6000803e3d6000fd5b505050506040513d601f19601f820116820180604052508101906100b6919061010f565b50505050565b80516dffffffffffffffffffffffffffff811681146100da57600080fd5b919050565b6000602082840312156100f157600080fd5b81356001600160a01b038116811461010857600080fd5b9392505050565b60008060006060848603121561012457600080fd5b61012d846100bc565b925061013b602085016100bc565b9150604084015163ffffffff8116811461015457600080fd5b80915050925092509256fea2646970667358221220bb5c930fd01f6d60957afc683f212383783af9d1dadcfc0f6eb1a225a6900d7364736f6c63430008060033ad6046625976df65390784e1468d8079825cbbf88f7c6b2da3f12871b375c79f44aabcfc5881ba432c01a4847f5a748ae4b67aec352e00a6358dc53f52464ffda26469706673582212209808c29d1d4440424cb1dab92a269f906a8af0db823ebddd8d7c9d2ebf37403964736f6c63430008060033",
  "devdoc": {
    "kind": "dev",
    "methods": {
      "getRoleAdmin(bytes32)": {
        "details": "Returns the admin role that controls `role`. See {grantRole} and {revokeRole}. To change a role's admin, use {_setRoleAdmin}."
      },
      "getRoleMember(bytes32,uint256)": {
        "details": "Returns one of the accounts that have `role`. `index` must be a value between 0 and {getRoleMemberCount}, non-inclusive. Role bearers are not sorted in any particular way, and their ordering may change at any point. WARNING: When using {getRoleMember} and {getRoleMemberCount}, make sure you perform all queries on the same block. See the following https://forum.openzeppelin.com/t/iterating-over-elements-on-enumerableset-in-openzeppelin-contracts/2296[forum post] for more information."
      },
      "getRoleMemberCount(bytes32)": {
        "details": "Returns the number of accounts that have `role`. Can be used together with {getRoleMember} to enumerate all bearers of a role."
      },
      "getValue(address,uint256,bytes)": {
        "params": {
          "metadata": "Can contain metadata about non ERC20 assets, like the token id of erc1155."
        }
      },
      "grantRole(bytes32,address)": {
        "details": "Grants `role` to `account`. If `account` had not been already granted `role`, emits a {RoleGranted} event. Requirements: - the caller must have ``role``'s admin role."
      },
      "hasRole(bytes32,address)": {
        "details": "Returns `true` if `account` has been granted `role`."
      },
      "renounceRole(bytes32,address)": {
        "details": "Revokes `role` from the calling account. Roles are often managed via {grantRole} and {revokeRole}: this function's purpose is to provide a mechanism for accounts to lose their privileges if they are compromised (such as when a trusted device is misplaced). If the calling account had been revoked `role`, emits a {RoleRevoked} event. Requirements: - the caller must be `account`."
      },
      "revokeRole(bytes32,address)": {
        "details": "Revokes `role` from `account`. If `account` had been granted `role`, emits a {RoleRevoked} event. Requirements: - the caller must have ``role``'s admin role."
      },
      "supportsInterface(bytes4)": {
        "details": "See {IERC165-supportsInterface}."
      }
    },
    "stateVariables": {
      "SET_FACTORY_ROLE": {
        "details": "Management roles"
      },
      "VERSION": {
        "details": "Simple identifier for internal parties. We reserve the right to make breaking changes without upgrading the VERSION."
      },
      "factories": {
        "details": "An enumerable list of all registered factories."
      },
      "mainAssets": {
        "details": "An enumerable list of all registered factories."
      },
      "overridenPairForToken": {
        "details": "Forces usage of the specified pair for calculating the first step of the value calculation."
      },
      "pairChecker": {
        "details": "Utility contract that throws if the provided address is not a pair, used because simple try-catch is insufficient due to it still reverting on wrong return data (and I'm too lazy for a low-level call)."
      },
      "stablecoins": {
        "details": "Information about a coin being a stablecoin. Everything is eventually routed to a stablecoin."
      }
    },
    "version": 1
  },
  "userdoc": {
    "kind": "user",
    "methods": {
      "addFactory(address)": {
        "notice": "** Factories *///"
      },
      "addMainAsset(address)": {
        "notice": "** Main assets *///"
      },
      "getPrice(address,bytes)": {
        "notice": "Returns the dollar value of the `amount` of one full unit (10**decimals) of `asset` at the current spot price. Returned value is in 1e18."
      },
      "getPrices(address[],bytes[])": {
        "notice": "Calls getPrice for all provided assets. Input parameters must be equal length."
      },
      "getValue(address,uint256,bytes)": {
        "notice": "Returns the dollar value of the `amount` of `asset` at the current spot price. Returned value is in 1e18."
      },
      "getValues(address[],uint256[],bytes[])": {
        "notice": "calls getValue for all provided assets. Input parameters must be equal length."
      }
    },
    "version": 1
  },
  "storageLayout": {
    "storage": [
      {
        "astId": 596,
        "contract": "contracts/PricerHandlerV1.sol:PricerHandlerV1",
        "label": "_initialized",
        "offset": 0,
        "slot": "0",
        "type": "t_bool"
      },
      {
        "astId": 599,
        "contract": "contracts/PricerHandlerV1.sol:PricerHandlerV1",
        "label": "_initializing",
        "offset": 1,
        "slot": "0",
        "type": "t_bool"
      },
      {
        "astId": 679,
        "contract": "contracts/PricerHandlerV1.sol:PricerHandlerV1",
        "label": "__gap",
        "offset": 0,
        "slot": "1",
        "type": "t_array(t_uint256)50_storage"
      },
      {
        "astId": 928,
        "contract": "contracts/PricerHandlerV1.sol:PricerHandlerV1",
        "label": "__gap",
        "offset": 0,
        "slot": "51",
        "type": "t_array(t_uint256)50_storage"
      },
      {
        "astId": 204,
        "contract": "contracts/PricerHandlerV1.sol:PricerHandlerV1",
        "label": "_roles",
        "offset": 0,
        "slot": "101",
        "type": "t_mapping(t_bytes32,t_struct(RoleData)199_storage)"
      },
      {
        "astId": 491,
        "contract": "contracts/PricerHandlerV1.sol:PricerHandlerV1",
        "label": "__gap",
        "offset": 0,
        "slot": "102",
        "type": "t_array(t_uint256)49_storage"
      },
      {
        "astId": 45,
        "contract": "contracts/PricerHandlerV1.sol:PricerHandlerV1",
        "label": "_roleMembers",
        "offset": 0,
        "slot": "151",
        "type": "t_mapping(t_bytes32,t_struct(AddressSet)1253_storage)"
      },
      {
        "astId": 154,
        "contract": "contracts/PricerHandlerV1.sol:PricerHandlerV1",
        "label": "__gap",
        "offset": 0,
        "slot": "152",
        "type": "t_array(t_uint256)49_storage"
      },
      {
        "astId": 5133,
        "contract": "contracts/PricerHandlerV1.sol:PricerHandlerV1",
        "label": "factories",
        "offset": 0,
        "slot": "201",
        "type": "t_struct(AddressSet)3989_storage"
      },
      {
        "astId": 5137,
        "contract": "contracts/PricerHandlerV1.sol:PricerHandlerV1",
        "label": "mainAssets",
        "offset": 0,
        "slot": "203",
        "type": "t_struct(AddressSet)3989_storage"
      },
      {
        "astId": 5143,
        "contract": "contracts/PricerHandlerV1.sol:PricerHandlerV1",
        "label": "overridenPairForToken",
        "offset": 0,
        "slot": "205",
        "type": "t_mapping(t_address,t_contract(IUniswapV2Pair)4581)"
      },
      {
        "astId": 5149,
        "contract": "contracts/PricerHandlerV1.sol:PricerHandlerV1",
        "label": "stablecoins",
        "offset": 0,
        "slot": "206",
        "type": "t_mapping(t_address,t_struct(StableCoinInfo)5129_storage)"
      },
      {
        "astId": 5164,
        "contract": "contracts/PricerHandlerV1.sol:PricerHandlerV1",
        "label": "pairChecker",
        "offset": 0,
        "slot": "207",
        "type": "t_contract(PairChecker)6025"
      }
    ],
    "types": {
      "t_address": {
        "encoding": "inplace",
        "label": "address",
        "numberOfBytes": "20"
      },
      "t_array(t_bytes32)dyn_storage": {
        "base": "t_bytes32",
        "encoding": "dynamic_array",
        "label": "bytes32[]",
        "numberOfBytes": "32"
      },
      "t_array(t_uint256)49_storage": {
        "base": "t_uint256",
        "encoding": "inplace",
        "label": "uint256[49]",
        "numberOfBytes": "1568"
      },
      "t_array(t_uint256)50_storage": {
        "base": "t_uint256",
        "encoding": "inplace",
        "label": "uint256[50]",
        "numberOfBytes": "1600"
      },
      "t_bool": {
        "encoding": "inplace",
        "label": "bool",
        "numberOfBytes": "1"
      },
      "t_bytes32": {
        "encoding": "inplace",
        "label": "bytes32",
        "numberOfBytes": "32"
      },
      "t_contract(IUniswapV2Pair)4581": {
        "encoding": "inplace",
        "label": "contract IUniswapV2Pair",
        "numberOfBytes": "20"
      },
      "t_contract(PairChecker)6025": {
        "encoding": "inplace",
        "label": "contract PairChecker",
        "numberOfBytes": "20"
      },
      "t_mapping(t_address,t_bool)": {
        "encoding": "mapping",
        "key": "t_address",
        "label": "mapping(address => bool)",
        "numberOfBytes": "32",
        "value": "t_bool"
      },
      "t_mapping(t_address,t_contract(IUniswapV2Pair)4581)": {
        "encoding": "mapping",
        "key": "t_address",
        "label": "mapping(address => contract IUniswapV2Pair)",
        "numberOfBytes": "32",
        "value": "t_contract(IUniswapV2Pair)4581"
      },
      "t_mapping(t_address,t_struct(StableCoinInfo)5129_storage)": {
        "encoding": "mapping",
        "key": "t_address",
        "label": "mapping(address => struct PricerHandlerV1.StableCoinInfo)",
        "numberOfBytes": "32",
        "value": "t_struct(StableCoinInfo)5129_storage"
      },
      "t_mapping(t_bytes32,t_struct(AddressSet)1253_storage)": {
        "encoding": "mapping",
        "key": "t_bytes32",
        "label": "mapping(bytes32 => struct EnumerableSetUpgradeable.AddressSet)",
        "numberOfBytes": "32",
        "value": "t_struct(AddressSet)1253_storage"
      },
      "t_mapping(t_bytes32,t_struct(RoleData)199_storage)": {
        "encoding": "mapping",
        "key": "t_bytes32",
        "label": "mapping(bytes32 => struct AccessControlUpgradeable.RoleData)",
        "numberOfBytes": "32",
        "value": "t_struct(RoleData)199_storage"
      },
      "t_mapping(t_bytes32,t_uint256)": {
        "encoding": "mapping",
        "key": "t_bytes32",
        "label": "mapping(bytes32 => uint256)",
        "numberOfBytes": "32",
        "value": "t_uint256"
      },
      "t_struct(AddressSet)1253_storage": {
        "encoding": "inplace",
        "label": "struct EnumerableSetUpgradeable.AddressSet",
        "members": [
          {
            "astId": 1252,
            "contract": "contracts/PricerHandlerV1.sol:PricerHandlerV1",
            "label": "_inner",
            "offset": 0,
            "slot": "0",
            "type": "t_struct(Set)952_storage"
          }
        ],
        "numberOfBytes": "64"
      },
      "t_struct(AddressSet)3989_storage": {
        "encoding": "inplace",
        "label": "struct EnumerableSet.AddressSet",
        "members": [
          {
            "astId": 3988,
            "contract": "contracts/PricerHandlerV1.sol:PricerHandlerV1",
            "label": "_inner",
            "offset": 0,
            "slot": "0",
            "type": "t_struct(Set)3688_storage"
          }
        ],
        "numberOfBytes": "64"
      },
      "t_struct(RoleData)199_storage": {
        "encoding": "inplace",
        "label": "struct AccessControlUpgradeable.RoleData",
        "members": [
          {
            "astId": 196,
            "contract": "contracts/PricerHandlerV1.sol:PricerHandlerV1",
            "label": "members",
            "offset": 0,
            "slot": "0",
            "type": "t_mapping(t_address,t_bool)"
          },
          {
            "astId": 198,
            "contract": "contracts/PricerHandlerV1.sol:PricerHandlerV1",
            "label": "adminRole",
            "offset": 0,
            "slot": "1",
            "type": "t_bytes32"
          }
        ],
        "numberOfBytes": "64"
      },
      "t_struct(Set)3688_storage": {
        "encoding": "inplace",
        "label": "struct EnumerableSet.Set",
        "members": [
          {
            "astId": 3683,
            "contract": "contracts/PricerHandlerV1.sol:PricerHandlerV1",
            "label": "_values",
            "offset": 0,
            "slot": "0",
            "type": "t_array(t_bytes32)dyn_storage"
          },
          {
            "astId": 3687,
            "contract": "contracts/PricerHandlerV1.sol:PricerHandlerV1",
            "label": "_indexes",
            "offset": 0,
            "slot": "1",
            "type": "t_mapping(t_bytes32,t_uint256)"
          }
        ],
        "numberOfBytes": "64"
      },
      "t_struct(Set)952_storage": {
        "encoding": "inplace",
        "label": "struct EnumerableSetUpgradeable.Set",
        "members": [
          {
            "astId": 947,
            "contract": "contracts/PricerHandlerV1.sol:PricerHandlerV1",
            "label": "_values",
            "offset": 0,
            "slot": "0",
            "type": "t_array(t_bytes32)dyn_storage"
          },
          {
            "astId": 951,
            "contract": "contracts/PricerHandlerV1.sol:PricerHandlerV1",
            "label": "_indexes",
            "offset": 0,
            "slot": "1",
            "type": "t_mapping(t_bytes32,t_uint256)"
          }
        ],
        "numberOfBytes": "64"
      },
      "t_struct(StableCoinInfo)5129_storage": {
        "encoding": "inplace",
        "label": "struct PricerHandlerV1.StableCoinInfo",
        "members": [
          {
            "astId": 5126,
            "contract": "contracts/PricerHandlerV1.sol:PricerHandlerV1",
            "label": "set",
            "offset": 0,
            "slot": "0",
            "type": "t_bool"
          },
          {
            "astId": 5128,
            "contract": "contracts/PricerHandlerV1.sol:PricerHandlerV1",
            "label": "decimals",
            "offset": 1,
            "slot": "0",
            "type": "t_uint8"
          }
        ],
        "numberOfBytes": "32"
      },
      "t_uint256": {
        "encoding": "inplace",
        "label": "uint256",
        "numberOfBytes": "32"
      },
      "t_uint8": {
        "encoding": "inplace",
        "label": "uint8",
        "numberOfBytes": "1"
      }
    }
  }
}