{
  "address": "0x2c3e1150d562BfA59521cf45AF9168C67e37F812",
  "abi": [
    {
      "anonymous": false,
      "inputs": [
        {
          "indexed": true,
          "internalType": "address",
          "name": "factory",
          "type": "address"
        }
      ],
      "name": "FactoryAdded",
      "type": "event"
    },
    {
      "anonymous": false,
      "inputs": [
        {
          "indexed": true,
          "internalType": "address",
          "name": "factory",
          "type": "address"
        }
      ],
      "name": "FactoryRemoved",
      "type": "event"
    },
    {
      "anonymous": false,
      "inputs": [
        {
          "indexed": true,
          "internalType": "address",
          "name": "mainAsset",
          "type": "address"
        }
      ],
      "name": "MainAssetAdded",
      "type": "event"
    },
    {
      "anonymous": false,
      "inputs": [
        {
          "indexed": true,
          "internalType": "address",
          "name": "mainAsset",
          "type": "address"
        }
      ],
      "name": "MainAssetRemoved",
      "type": "event"
    },
    {
      "anonymous": false,
      "inputs": [
        {
          "indexed": true,
          "internalType": "address",
          "name": "asset",
          "type": "address"
        },
        {
          "indexed": true,
          "internalType": "contract IUniswapV2Pair",
          "name": "pair",
          "type": "address"
        }
      ],
      "name": "OverridenPairSet",
      "type": "event"
    },
    {
      "anonymous": false,
      "inputs": [
        {
          "indexed": true,
          "internalType": "contract PairChecker",
          "name": "newPairChecker",
          "type": "address"
        }
      ],
      "name": "PairCheckerSet",
      "type": "event"
    },
    {
      "anonymous": false,
      "inputs": [
        {
          "indexed": true,
          "internalType": "bytes32",
          "name": "role",
          "type": "bytes32"
        },
        {
          "indexed": true,
          "internalType": "bytes32",
          "name": "previousAdminRole",
          "type": "bytes32"
        },
        {
          "indexed": true,
          "internalType": "bytes32",
          "name": "newAdminRole",
          "type": "bytes32"
        }
      ],
      "name": "RoleAdminChanged",
      "type": "event"
    },
    {
      "anonymous": false,
      "inputs": [
        {
          "indexed": true,
          "internalType": "bytes32",
          "name": "role",
          "type": "bytes32"
        },
        {
          "indexed": true,
          "internalType": "address",
          "name": "account",
          "type": "address"
        },
        {
          "indexed": true,
          "internalType": "address",
          "name": "sender",
          "type": "address"
        }
      ],
      "name": "RoleGranted",
      "type": "event"
    },
    {
      "anonymous": false,
      "inputs": [
        {
          "indexed": true,
          "internalType": "bytes32",
          "name": "role",
          "type": "bytes32"
        },
        {
          "indexed": true,
          "internalType": "address",
          "name": "account",
          "type": "address"
        },
        {
          "indexed": true,
          "internalType": "address",
          "name": "sender",
          "type": "address"
        }
      ],
      "name": "RoleRevoked",
      "type": "event"
    },
    {
      "anonymous": false,
      "inputs": [
        {
          "indexed": true,
          "internalType": "address",
          "name": "stablecoin",
          "type": "address"
        },
        {
          "indexed": true,
          "internalType": "bool",
          "name": "set",
          "type": "bool"
        }
      ],
      "name": "StableCoinSet",
      "type": "event"
    },
    {
      "inputs": [],
      "name": "DEFAULT_ADMIN_ROLE",
      "outputs": [
        {
          "internalType": "bytes32",
          "name": "",
          "type": "bytes32"
        }
      ],
      "stateMutability": "view",
      "type": "function"
    },
    {
      "inputs": [],
      "name": "SET_ASSET_ROLE",
      "outputs": [
        {
          "internalType": "bytes32",
          "name": "",
          "type": "bytes32"
        }
      ],
      "stateMutability": "view",
      "type": "function"
    },
    {
      "inputs": [],
      "name": "SET_FACTORY_ROLE",
      "outputs": [
        {
          "internalType": "bytes32",
          "name": "",
          "type": "bytes32"
        }
      ],
      "stateMutability": "view",
      "type": "function"
    },
    {
      "inputs": [],
      "name": "VERSION",
      "outputs": [
        {
          "internalType": "uint256",
          "name": "",
          "type": "uint256"
        }
      ],
      "stateMutability": "view",
      "type": "function"
    },
    {
      "inputs": [
        {
          "internalType": "address",
          "name": "_factory",
          "type": "address"
        }
      ],
      "name": "addFactory",
      "outputs": [],
      "stateMutability": "nonpayable",
      "type": "function"
    },
    {
      "inputs": [
        {
          "internalType": "address",
          "name": "_mainAsset",
          "type": "address"
        }
      ],
      "name": "addMainAsset",
      "outputs": [],
      "stateMutability": "nonpayable",
      "type": "function"
    },
    {
      "inputs": [
        {
          "internalType": "uint256",
          "name": "index",
          "type": "uint256"
        }
      ],
      "name": "factoryAt",
      "outputs": [
        {
          "internalType": "address",
          "name": "",
          "type": "address"
        }
      ],
      "stateMutability": "view",
      "type": "function"
    },
    {
      "inputs": [],
      "name": "factoryLength",
      "outputs": [
        {
          "internalType": "uint256",
          "name": "",
          "type": "uint256"
        }
      ],
      "stateMutability": "view",
      "type": "function"
    },
    {
      "inputs": [
        {
          "internalType": "address",
          "name": "token",
          "type": "address"
        },
        {
          "internalType": "uint256",
          "name": "amount",
          "type": "uint256"
        }
      ],
      "name": "getDiscoveredTokenValue",
      "outputs": [
        {
          "internalType": "uint256",
          "name": "",
          "type": "uint256"
        }
      ],
      "stateMutability": "view",
      "type": "function"
    },
    {
      "inputs": [
        {
          "internalType": "address",
          "name": "asset",
          "type": "address"
        },
        {
          "internalType": "bytes",
          "name": "metadata",
          "type": "bytes"
        }
      ],
      "name": "getPrice",
      "outputs": [
        {
          "internalType": "uint256",
          "name": "",
          "type": "uint256"
        }
      ],
      "stateMutability": "view",
      "type": "function"
    },
    {
      "inputs": [
        {
          "internalType": "address[]",
          "name": "assets",
          "type": "address[]"
        },
        {
          "internalType": "bytes[]",
          "name": "metadata",
          "type": "bytes[]"
        }
      ],
      "name": "getPrices",
      "outputs": [
        {
          "internalType": "uint256[]",
          "name": "",
          "type": "uint256[]"
        }
      ],
      "stateMutability": "view",
      "type": "function"
    },
    {
      "inputs": [
        {
          "internalType": "bytes32",
          "name": "role",
          "type": "bytes32"
        }
      ],
      "name": "getRoleAdmin",
      "outputs": [
        {
          "internalType": "bytes32",
          "name": "",
          "type": "bytes32"
        }
      ],
      "stateMutability": "view",
      "type": "function"
    },
    {
      "inputs": [
        {
          "internalType": "bytes32",
          "name": "role",
          "type": "bytes32"
        },
        {
          "internalType": "uint256",
          "name": "index",
          "type": "uint256"
        }
      ],
      "name": "getRoleMember",
      "outputs": [
        {
          "internalType": "address",
          "name": "",
          "type": "address"
        }
      ],
      "stateMutability": "view",
      "type": "function"
    },
    {
      "inputs": [
        {
          "internalType": "bytes32",
          "name": "role",
          "type": "bytes32"
        }
      ],
      "name": "getRoleMemberCount",
      "outputs": [
        {
          "internalType": "uint256",
          "name": "",
          "type": "uint256"
        }
      ],
      "stateMutability": "view",
      "type": "function"
    },
    {
      "inputs": [
        {
          "internalType": "address",
          "name": "token",
          "type": "address"
        },
        {
          "internalType": "uint256",
          "name": "amount",
          "type": "uint256"
        }
      ],
      "name": "getTokenValue",
      "outputs": [
        {
          "internalType": "uint256",
          "name": "",
          "type": "uint256"
        }
      ],
      "stateMutability": "view",
      "type": "function"
    },
    {
      "inputs": [
        {
          "internalType": "address",
          "name": "asset",
          "type": "address"
        },
        {
          "internalType": "uint256",
          "name": "amount",
          "type": "uint256"
        },
        {
          "internalType": "bytes",
          "name": "metadata",
          "type": "bytes"
        }
      ],
      "name": "getValue",
      "outputs": [
        {
          "internalType": "uint256",
          "name": "",
          "type": "uint256"
        }
      ],
      "stateMutability": "view",
      "type": "function"
    },
    {
      "inputs": [
        {
          "internalType": "address[]",
          "name": "assets",
          "type": "address[]"
        },
        {
          "internalType": "uint256[]",
          "name": "amounts",
          "type": "uint256[]"
        },
        {
          "internalType": "bytes[]",
          "name": "metadata",
          "type": "bytes[]"
        }
      ],
      "name": "getValues",
      "outputs": [
        {
          "internalType": "uint256[]",
          "name": "",
          "type": "uint256[]"
        }
      ],
      "stateMutability": "view",
      "type": "function"
    },
    {
      "inputs": [
        {
          "internalType": "bytes32",
          "name": "role",
          "type": "bytes32"
        },
        {
          "internalType": "address",
          "name": "account",
          "type": "address"
        }
      ],
      "name": "grantRole",
      "outputs": [],
      "stateMutability": "nonpayable",
      "type": "function"
    },
    {
      "inputs": [
        {
          "internalType": "bytes32",
          "name": "role",
          "type": "bytes32"
        },
        {
          "internalType": "address",
          "name": "account",
          "type": "address"
        }
      ],
      "name": "hasRole",
      "outputs": [
        {
          "internalType": "bool",
          "name": "",
          "type": "bool"
        }
      ],
      "stateMutability": "view",
      "type": "function"
    },
    {
      "inputs": [
        {
          "internalType": "address",
          "name": "_owner",
          "type": "address"
        }
      ],
      "name": "initialize",
      "outputs": [],
      "stateMutability": "nonpayable",
      "type": "function"
    },
    {
      "inputs": [
        {
          "internalType": "uint256",
          "name": "index",
          "type": "uint256"
        }
      ],
      "name": "mainAssetAt",
      "outputs": [
        {
          "internalType": "address",
          "name": "",
          "type": "address"
        }
      ],
      "stateMutability": "view",
      "type": "function"
    },
    {
      "inputs": [],
      "name": "mainAssetLength",
      "outputs": [
        {
          "internalType": "uint256",
          "name": "",
          "type": "uint256"
        }
      ],
      "stateMutability": "view",
      "type": "function"
    },
    {
      "inputs": [
        {
          "internalType": "address",
          "name": "",
          "type": "address"
        }
      ],
      "name": "overridenPairForToken",
      "outputs": [
        {
          "internalType": "contract IUniswapV2Pair",
          "name": "",
          "type": "address"
        }
      ],
      "stateMutability": "view",
      "type": "function"
    },
    {
      "inputs": [],
      "name": "pairChecker",
      "outputs": [
        {
          "internalType": "contract PairChecker",
          "name": "",
          "type": "address"
        }
      ],
      "stateMutability": "view",
      "type": "function"
    },
    {
      "inputs": [
        {
          "internalType": "address",
          "name": "_factory",
          "type": "address"
        }
      ],
      "name": "removeFactory",
      "outputs": [],
      "stateMutability": "nonpayable",
      "type": "function"
    },
    {
      "inputs": [
        {
          "internalType": "address",
          "name": "_mainAsset",
          "type": "address"
        }
      ],
      "name": "removeMainAsset",
      "outputs": [],
      "stateMutability": "nonpayable",
      "type": "function"
    },
    {
      "inputs": [
        {
          "internalType": "bytes32",
          "name": "role",
          "type": "bytes32"
        },
        {
          "internalType": "address",
          "name": "account",
          "type": "address"
        }
      ],
      "name": "renounceRole",
      "outputs": [],
      "stateMutability": "nonpayable",
      "type": "function"
    },
    {
      "inputs": [
        {
          "internalType": "bytes32",
          "name": "role",
          "type": "bytes32"
        },
        {
          "internalType": "address",
          "name": "account",
          "type": "address"
        }
      ],
      "name": "revokeRole",
      "outputs": [],
      "stateMutability": "nonpayable",
      "type": "function"
    },
    {
      "inputs": [
        {
          "internalType": "address",
          "name": "asset",
          "type": "address"
        },
        {
          "internalType": "contract IUniswapV2Pair",
          "name": "pair",
          "type": "address"
        }
      ],
      "name": "setOverridenPair",
      "outputs": [],
      "stateMutability": "nonpayable",
      "type": "function"
    },
    {
      "inputs": [
        {
          "internalType": "contract PairChecker",
          "name": "_pairChecker",
          "type": "address"
        }
      ],
      "name": "setPairChecker",
      "outputs": [],
      "stateMutability": "nonpayable",
      "type": "function"
    },
    {
      "inputs": [
        {
          "internalType": "address",
          "name": "stablecoin",
          "type": "address"
        },
        {
          "internalType": "bool",
          "name": "set",
          "type": "bool"
        }
      ],
      "name": "setStablecoin",
      "outputs": [],
      "stateMutability": "nonpayable",
      "type": "function"
    },
    {
      "inputs": [
        {
          "internalType": "address",
          "name": "",
          "type": "address"
        }
      ],
      "name": "stablecoins",
      "outputs": [
        {
          "internalType": "bool",
          "name": "set",
          "type": "bool"
        },
        {
          "internalType": "uint8",
          "name": "decimals",
          "type": "uint8"
        }
      ],
      "stateMutability": "view",
      "type": "function"
    },
    {
      "inputs": [
        {
          "internalType": "bytes4",
          "name": "interfaceId",
          "type": "bytes4"
        }
      ],
      "name": "supportsInterface",
      "outputs": [
        {
          "internalType": "bool",
          "name": "",
          "type": "bool"
        }
      ],
      "stateMutability": "view",
      "type": "function"
    }
  ],
  "transactionHash": "0xed7b8e467c3e0ec1bbdee023e158cf36a1270f09e831a318f643ac87b62a47cd",
  "args": [],
  "solcInputHash": "8bbf369b52f46e38bf72480009045788",
  "bytecode": "0x608060405234801561001057600080fd5b50613281806100206000396000f3fe608060405234801561001057600080fd5b50600436106101fb5760003560e01c80638ac06f501161011a578063cfa26d94116100ad578063df7697d21161007c578063df7697d21461044f578063e1eaf42f14610478578063e9d57a871461048b578063fa847836146104a0578063ffa1ad74146104e557600080fd5b8063cfa26d94146103f6578063d547741f14610416578063d62cdd1714610429578063dbe288b41461043c57600080fd5b8063a760b08a116100e9578063a760b08a146103a8578063c4d66de8146103bb578063c89b88e3146103ce578063ca15c873146103e357600080fd5b80638ac06f50146103675780639010d07c1461037a57806391d148541461038d578063a217fddf146103a057600080fd5b806336568abe116101925780634b37c73f116101615780634b37c73f1461031b578063508b282f1461032e5780636d34cd17146103415780637bfcdc641461035457600080fd5b806336568abe146102da5780633e1aceb8146102ed578063470f4985146103005780634b3617ae1461030857600080fd5b80631ccbf908116101ce5780631ccbf9081461027c578063248a9ca31461029157806329ce1ec5146102b45780632f2ff15d146102c757600080fd5b806301ffc9a714610200578063089b51221461022857806309666e39146102535780631603a17414610266575b600080fd5b61021361020e366004612943565b6104ed565b60405190151581526020015b60405180910390f35b60cf5461023b906001600160a01b031681565b6040516001600160a01b03909116815260200161021f565b61023b6102613660046128e3565b610518565b61026e610525565b60405190815260200161021f565b61028f61028a3660046125a7565b610536565b005b61026e61029f3660046128e3565b60009081526065602052604090206001015490565b61028f6102c236600461256d565b61064f565b61028f6102d53660046128fc565b6106fa565b61028f6102e83660046128fc565b610725565b61028f6102fb36600461256d565b6107a3565b61026e6108f3565b61026e6103163660046126bc565b6108ff565b61028f61032936600461256d565b611086565b61026e61033c366004612690565b611124565b61026e61034f366004612690565b61133b565b61028f610362366004612662565b61142b565b61026e61037536600461260e565b61149c565b61023b610388366004612921565b611536565b61021361039b3660046128fc565b61154e565b61026e600081565b61028f6103b636600461256d565b611579565b61028f6103c936600461256d565b611617565b61026e60008051602061320c83398151915281565b61026e6103f13660046128e3565b61170f565b610409610404366004612717565b611726565b60405161021f9190612b3f565b61028f6104243660046128fc565b6118aa565b610409610437366004612776565b6118d0565b61023b61044a3660046128e3565b6119b3565b61023b61045d36600461256d565b60cd602052600090815260409020546001600160a01b031681565b61028f61048636600461256d565b6119c0565b61026e60008051602061322c83398151915281565b6104cc6104ae36600461256d565b60ce6020526000908152604090205460ff8082169161010090041682565b60408051921515835260ff90911660208301520161021f565b61026e600181565b60006001600160e01b03198216635a05180f60e01b1480610512575061051282611a17565b92915050565b600061051260c983611a4c565b600061053160cb611a58565b905090565b60008051602061322c83398151915261054f8133611a62565b60405180604001604052808315158152602001846001600160a01b031663313ce5676040518163ffffffff1660e01b815260040160206040518083038186803b15801561059b57600080fd5b505afa1580156105af573d6000803e3d6000fd5b505050506040513d601f19601f820116820180604052508101906105d39190612a8b565b60ff9081169091526001600160a01b038516600081815260ce602090815260408083208651815497909301519095166101000261ff00199215159290921661ffff199096169590951717909255915184151592917ffa3d03fdbb5c58a9dbb070320f30076f20061ef3e48f1ac41f11fc3e043c007c91a3505050565b60008051602061320c8339815191526106688133611a62565b61067360c983611ac6565b156106b65760405162461bcd60e51b815260206004820152600e60248201526d08585b1c9958591e48185919195960921b60448201526064015b60405180910390fd5b6106c160c983611ae8565b506040516001600160a01b038316907f6fdc0147105e43e21da80a75b42d0fd464060d5e1a34b0cefbf0b4ccfc2e36a190600090a25050565b6000828152606560205260409020600101546107168133611a62565b6107208383611afd565b505050565b6001600160a01b03811633146107955760405162461bcd60e51b815260206004820152602f60248201527f416363657373436f6e74726f6c3a2063616e206f6e6c792072656e6f756e636560448201526e103937b632b9903337b91039b2b63360891b60648201526084016106ad565b61079f8282611b1f565b5050565b60008051602061322c8339815191526107bc8133611a62565b6107c760cb83611ac6565b156108055760405162461bcd60e51b815260206004820152600e60248201526d08585b1c9958591e48185919195960921b60448201526064016106ad565b6001600160a01b038216600090815260ce602052604090205460ff168061084557506001600160a01b03828116600090815260cd60205260409020541615155b6108af5760405162461bcd60e51b815260206004820152603560248201527f2141646420617320737461626c65636f696e206f72207365742070616972207760448201527434ba341039ba30b13632b1b7b4b7103334b939ba1760591b60648201526084016106ad565b6108ba60cb83611ae8565b506040516001600160a01b038316907f65ddd50cf3377d82598edec30eaf7de0ffed6c947b8423e7fa5c4986d9f79f5190600090a25050565b600061053160c9611a58565b60008115610ab1576000610915838501856128e3565b604051630a04965760e41b8152600481018290529091506000906001600160a01b0388169063a04965709060240160206040518083038186803b15801561095b57600080fd5b505afa15801561096f573d6000803e3d6000fd5b505050506040513d601f19601f820116820180604052508101906109939190612a72565b60405163bd85b03960e01b8152600481018490529091506000906001600160a01b0389169063bd85b0399060240160206040518083038186803b1580156109d957600080fd5b505afa1580156109ed573d6000803e3d6000fd5b505050506040513d601f19601f82011682018060405250810190610a119190612a72565b6040516312520c1b60e31b8152600481018590529091506000906001600160a01b038a169063929060d89060240160c06040518083038186803b158015610a5757600080fd5b505afa158015610a6b573d6000803e3d6000fd5b505050506040513d601f19601f82011682018060405250810190610a8f919061296d565b80519950905081610aa0848a612dd2565b610aaa9190612cb5565b9750505050505b60cf546040516001600160a01b038781166024830152600092169063e5e31b1360e01b9060440160408051601f198184030181529181526020820180516001600160e01b03166001600160e01b0319909416939093179092529051610b169190612aae565b600060405180830381855afa9150503d8060008114610b51576040519150601f19603f3d011682016040523d82523d6000602084013e610b56565b606091505b505090508015610dbd576000866001600160a01b0316630dfe16816040518163ffffffff1660e01b815260040160206040518083038186803b158015610b9b57600080fd5b505afa158015610baf573d6000803e3d6000fd5b505050506040513d601f19601f82011682018060405250810190610bd3919061258a565b90506000876001600160a01b031663d21220a76040518163ffffffff1660e01b815260040160206040518083038186803b158015610c1057600080fd5b505afa158015610c24573d6000803e3d6000fd5b505050506040513d601f19601f82011682018060405250810190610c48919061258a565b9050600080896001600160a01b0316630902f1ac6040518163ffffffff1660e01b815260040160606040518083038186803b158015610c8657600080fd5b505afa158015610c9a573d6000803e3d6000fd5b505050506040513d601f19601f82011682018060405250810190610cbe9190612a22565b506001600160701b031691506001600160701b0316915060008a6001600160a01b03166318160ddd6040518163ffffffff1660e01b815260040160206040518083038186803b158015610d1057600080fd5b505afa158015610d24573d6000803e3d6000fd5b505050506040513d601f19601f82011682018060405250810190610d489190612a72565b905080610d5e576000965050505050505061107e565b600081610d6b858d612dd2565b610d759190612cb5565b9050600082610d84858e612dd2565b610d8e9190612cb5565b9050610d9a868261133b565b610da4888461133b565b610dae9190612c9d565b9850505050505050505061107e565b60cf54604080516001600160a01b0389811660248084019190915283518084039091018152604490920183526020820180516001600160e01b031663679c837760e01b17905291519190921691620186a091610e199190612aae565b6000604051808303818686fa925050503d8060008114610e55576040519150601f19603f3d011682016040523d82523d6000602084013e610e5a565b606091505b509091505080156110705760cf5460405163679c837760e01b81526001600160a01b038881166004830152600092839291169063679c837790602401604080518083038186803b158015610ead57600080fd5b505afa158015610ec1573d6000803e3d6000fd5b505050506040513d601f19601f82011682018060405250810190610ee591906125e0565b91509150600080836001600160a01b031663f94d4668846040518263ffffffff1660e01b8152600401610f1a91815260200190565b60006040518083038186803b158015610f3257600080fd5b505afa158015610f46573d6000803e3d6000fd5b505050506040513d6000823e601f3d908101601f19168201604052610f6e919081019061280f565b50915091506000808b6001600160a01b03166318160ddd6040518163ffffffff1660e01b815260040160206040518083038186803b158015610faf57600080fd5b505afa158015610fc3573d6000803e3d6000fd5b505050506040513d601f19601f82011682018060405250810190610fe79190612a72565b905060005b84518110156110605761104285828151811061100a5761100a612e96565b60200260200101518386848151811061102557611025612e96565b60200260200101518f6110389190612dd2565b61034f9190612cb5565b61104c9084612c9d565b92508061105881612e4f565b915050610fec565b508197505050505050505061107e565b61107a868661133b565b9150505b949350505050565b60008051602061320c83398151915261109f8133611a62565b6110aa60c983611ac6565b6110e05760405162461bcd60e51b81526020600482015260076024820152662165786973747360c81b60448201526064016106ad565b6110eb60c983611b3d565b506040516001600160a01b038316907fafa2737b2090fa39c66b7348625f0c03726240f724defbc6216d679506f9444190600090a25050565b6000808080805b61113560c9611a58565b81101561131a57600061114960c983611a4c565b905060005b61115860cb611a58565b81101561130557600061116c60cb83611a4c565b9050806001600160a01b03168a6001600160a01b0316141561118e57506112f3565b60405163e6a4390560e01b81526001600160a01b038b8116600483015282811660248301526000919085169063e6a439059060440160206040518083038186803b1580156111db57600080fd5b505afa1580156111ef573d6000803e3d6000fd5b505050506040513d601f19601f82011682018060405250810190611213919061258a565b90506001600160a01b03811661122a5750506112f3565b60008060008061124e8f8f876001600160a01b0316611b529092919063ffffffff16565b93509350935093506000611262848461133b565b90506000611270858461133b565b905061127c8682612dd2565b611286908d612c9d565b9b50611292828e612c9d565b9c5061129e868f612c9d565b9d508f6103e86112ae9190612dd2565b8e1015806112c6575069021e19e0c9bab24000008d10155b156112ea576112d58e8d612cb5565b9e505050505050505050505050505050610512565b50505050505050505b806112fd81612e4f565b91505061114e565b5050808061131290612e4f565b91505061112b565b5082611327576000611331565b6113318382612cb5565b9695505050505050565b6001600160a01b038216600090815260ce6020908152604080832081518083019092525460ff80821615801584526101009092041692820192909252906113c657806020015160ff166012146113bc57602081015161139b90600a612d26565b6113ad84670de0b6b3a7640000612dd2565b6113b79190612cb5565b6113be565b825b915050610512565b6001600160a01b03808516600090815260cd6020526040902054168015611418576000806113fe6001600160a01b0384168888611d30565b925050915061140d828261133b565b945050505050610512565b6114228585611124565b95945050505050565b60008051602061322c8339815191526114448133611a62565b6001600160a01b03838116600081815260cd602052604080822080546001600160a01b0319169487169485179055517f76d5c7f436b9108b7c934740e2e8f6b7a3537049baaaafebeeb32b4f1dbfce0a9190a3505050565b600080846001600160a01b031663313ce5676040518163ffffffff1660e01b815260040160206040518083038186803b1580156114d857600080fd5b505afa1580156114ec573d6000803e3d6000fd5b505050506040513d601f19601f820116820180604052508101906115109190612a8b565b60ff16905061152b8561152483600a612d1a565b86866108ff565b9150505b9392505050565b600082815260976020526040812061152f9083611a4c565b60009182526065602090815260408084206001600160a01b0393909316845291905290205460ff1690565b60008051602061322c8339815191526115928133611a62565b61159d60c983611ac6565b6115d35760405162461bcd60e51b81526020600482015260076024820152662165786973747360c81b60448201526064016106ad565b6115de60c983611b3d565b506040516001600160a01b038316907f71b8cbadd9731aedbb3246bd6204cafc764a2281e0d7443eab3986ee2304c75e90600090a25050565b600054610100900460ff1680611630575060005460ff16155b61164c5760405162461bcd60e51b81526004016106ad90612bb6565b600054610100900460ff1615801561166e576000805461ffff19166101011790555b611676611f08565b611681600083611f94565b61169960008051602061320c83398151915283611f94565b6116b160008051602061322c83398151915283611f94565b6040516116bd90612429565b604051809103906000f0801580156116d9573d6000803e3d6000fd5b5060cf80546001600160a01b0319166001600160a01b0392909216919091179055801561079f576000805461ff00191690555050565b600081815260976020526040812061051290611a58565b60606000846001600160401b0381111561174257611742612eac565b60405190808252806020026020018201604052801561176b578160200160208202803683370190505b50905060005b858110156118a057600087878381811061178d5761178d612e96565b90506020020160208101906117a2919061256d565b6001600160a01b031663313ce5676040518163ffffffff1660e01b815260040160206040518083038186803b1580156117da57600080fd5b505afa1580156117ee573d6000803e3d6000fd5b505050506040513d601f19601f820116820180604052508101906118129190612a8b565b60ff16905061187088888481811061182c5761182c612e96565b9050602002016020810190611841919061256d565b61184c83600a612d1a565b88888681811061185e5761185e612e96565b90506020028101906103169190612c04565b83838151811061188257611882612e96565b6020908102919091010152508061189881612e4f565b915050611771565b5095945050505050565b6000828152606560205260409020600101546118c68133611a62565b6107208383611b1f565b60606000866001600160401b038111156118ec576118ec612eac565b604051908082528060200260200182016040528015611915578160200160208202803683370190505b50905060005b878110156119a75761197889898381811061193857611938612e96565b905060200201602081019061194d919061256d565b88888481811061195f5761195f612e96565b9050602002013587878581811061185e5761185e612e96565b82828151811061198a5761198a612e96565b60209081029190910101528061199f81612e4f565b91505061191b565b50979650505050505050565b600061051260cb83611a4c565b60006119cc8133611a62565b60cf80546001600160a01b0319166001600160a01b0384169081179091556040517f0fe043a76cd551241ad80a30a42cebea3f3fca9784a704368fd2253a0245515e90600090a25050565b60006001600160e01b03198216637965db0b60e01b148061051257506301ffc9a760e01b6001600160e01b0319831614610512565b600061152f8383611f9e565b6000610512825490565b611a6c828261154e565b61079f57611a84816001600160a01b03166014611fc8565b611a8f836020611fc8565b604051602001611aa0929190612aca565b60408051601f198184030181529082905262461bcd60e51b82526106ad91600401612b83565b6001600160a01b0381166000908152600183016020526040812054151561152f565b600061152f836001600160a01b038416612163565b611b0782826121b2565b60008281526097602052604090206107209082611ae8565b611b298282612238565b600082815260976020526040902061072090825b600061152f836001600160a01b03841661229f565b6000806000806000876001600160a01b031663d21220a76040518163ffffffff1660e01b815260040160206040518083038186803b158015611b9357600080fd5b505afa158015611ba7573d6000803e3d6000fd5b505050506040513d601f19601f82011682018060405250810190611bcb919061258a565b9050600080896001600160a01b0316630902f1ac6040518163ffffffff1660e01b815260040160606040518083038186803b158015611c0957600080fd5b505afa158015611c1d573d6000803e3d6000fd5b505050506040513d601f19601f82011682018060405250810190611c419190612a22565b506001600160701b031691506001600160701b03169150886001600160a01b0316836001600160a01b03161415611ce757896001600160a01b0316630dfe16816040518163ffffffff1660e01b815260040160206040518083038186803b158015611cab57600080fd5b505afa158015611cbf573d6000803e3d6000fd5b505050506040513d601f19601f82011682018060405250810190611ce3919061258a565b9250905b60008215611d095782611cfa838b612dd2565b611d049190612cb5565b611d0c565b60005b90508284611d1b8b8686612392565b91995097509550935050505093509350935093565b600080600080866001600160a01b031663d21220a76040518163ffffffff1660e01b815260040160206040518083038186803b158015611d6f57600080fd5b505afa158015611d83573d6000803e3d6000fd5b505050506040513d601f19601f82011682018060405250810190611da7919061258a565b9050600080886001600160a01b0316630902f1ac6040518163ffffffff1660e01b815260040160606040518083038186803b158015611de557600080fd5b505afa158015611df9573d6000803e3d6000fd5b505050506040513d601f19601f82011682018060405250810190611e1d9190612a22565b506001600160701b031691506001600160701b03169150876001600160a01b0316836001600160a01b03161415611ec357886001600160a01b0316630dfe16816040518163ffffffff1660e01b815260040160206040518083038186803b158015611e8757600080fd5b505afa158015611e9b573d6000803e3d6000fd5b505050506040513d601f19601f82011682018060405250810190611ebf919061258a565b9250905b60008215611ee55782611ed6838a612dd2565b611ee09190612cb5565b611ee8565b60005b905083611ef6898585612392565b909b909a509098509650505050505050565b600054610100900460ff1680611f21575060005460ff16155b611f3d5760405162461bcd60e51b81526004016106ad90612bb6565b600054610100900460ff16158015611f5f576000805461ffff19166101011790555b611f676123bf565b611f6f6123bf565b611f776123bf565b611f7f6123bf565b8015611f91576000805461ff00191690555b50565b61079f8282611afd565b6000826000018281548110611fb557611fb5612e96565b9060005260206000200154905092915050565b60606000611fd7836002612dd2565b611fe2906002612c9d565b6001600160401b03811115611ff957611ff9612eac565b6040519080825280601f01601f191660200182016040528015612023576020820181803683370190505b509050600360fc1b8160008151811061203e5761203e612e96565b60200101906001600160f81b031916908160001a905350600f60fb1b8160018151811061206d5761206d612e96565b60200101906001600160f81b031916908160001a9053506000612091846002612dd2565b61209c906001612c9d565b90505b6001811115612114576f181899199a1a9b1b9c1cb0b131b232b360811b85600f16601081106120d0576120d0612e96565b1a60f81b8282815181106120e6576120e6612e96565b60200101906001600160f81b031916908160001a90535060049490941c9361210d81612e38565b905061209f565b50831561152f5760405162461bcd60e51b815260206004820181905260248201527f537472696e67733a20686578206c656e67746820696e73756666696369656e7460448201526064016106ad565b60008181526001830160205260408120546121aa57508154600181810184556000848152602080822090930184905584548482528286019093526040902091909155610512565b506000610512565b6121bc828261154e565b61079f5760008281526065602090815260408083206001600160a01b03851684529091529020805460ff191660011790556121f43390565b6001600160a01b0316816001600160a01b0316837f2f8788117e7eff1d82e926ec794901d17c78024a50270940304540a733656f0d60405160405180910390a45050565b612242828261154e565b1561079f5760008281526065602090815260408083206001600160a01b0385168085529252808320805460ff1916905551339285917ff6391f5c32d9c69d2a47ea670b442974b53935d1edc7fd64eb21e047a839171b9190a45050565b600081815260018301602052604081205480156123885760006122c3600183612df1565b85549091506000906122d790600190612df1565b905081811461233c5760008660000182815481106122f7576122f7612e96565b906000526020600020015490508087600001848154811061231a5761231a612e96565b6000918252602080832090910192909255918252600188019052604090208390555b855486908061234d5761234d612e80565b600190038181906000526020600020016000905590558560010160008681526020019081526020016000206000905560019350505050610512565b6000915050610512565b6000826123a15750600061152f565b6123ab8484612c9d565b6123b58386612dd2565b61107e9190612cb5565b600054610100900460ff16806123d8575060005460ff16155b6123f45760405162461bcd60e51b81526004016106ad90612bb6565b600054610100900460ff16158015611f7f576000805461ffff19166101011790558015611f91576000805461ff001916905550565b61032680612ee683390190565b60008083601f84011261244857600080fd5b5081356001600160401b0381111561245f57600080fd5b6020830191508360208260051b850101111561247a57600080fd5b9250929050565b600082601f83011261249257600080fd5b815160206124a76124a283612c7a565b612c4a565b80838252828201915082860187848660051b89010111156124c757600080fd5b60005b858110156124e6578151845292840192908401906001016124ca565b5090979650505050505050565b80516124fe81612ed7565b919050565b60008083601f84011261251557600080fd5b5081356001600160401b0381111561252c57600080fd5b60208301915083602082850101111561247a57600080fd5b80516001600160701b03811681146124fe57600080fd5b805161ffff811681146124fe57600080fd5b60006020828403121561257f57600080fd5b813561152f81612ec2565b60006020828403121561259c57600080fd5b815161152f81612ec2565b600080604083850312156125ba57600080fd5b82356125c581612ec2565b915060208301356125d581612ed7565b809150509250929050565b600080604083850312156125f357600080fd5b82516125fe81612ec2565b6020939093015192949293505050565b60008060006040848603121561262357600080fd5b833561262e81612ec2565b925060208401356001600160401b0381111561264957600080fd5b61265586828701612503565b9497909650939450505050565b6000806040838503121561267557600080fd5b823561268081612ec2565b915060208301356125d581612ec2565b600080604083850312156126a357600080fd5b82356126ae81612ec2565b946020939093013593505050565b600080600080606085870312156126d257600080fd5b84356126dd81612ec2565b93506020850135925060408501356001600160401b038111156126ff57600080fd5b61270b87828801612503565b95989497509550505050565b6000806000806040858703121561272d57600080fd5b84356001600160401b038082111561274457600080fd5b61275088838901612436565b9096509450602087013591508082111561276957600080fd5b5061270b87828801612436565b6000806000806000806060878903121561278f57600080fd5b86356001600160401b03808211156127a657600080fd5b6127b28a838b01612436565b909850965060208901359150808211156127cb57600080fd5b6127d78a838b01612436565b909650945060408901359150808211156127f057600080fd5b506127fd89828a01612436565b979a9699509497509295939492505050565b60008060006060848603121561282457600080fd5b83516001600160401b038082111561283b57600080fd5b818601915086601f83011261284f57600080fd5b8151602061285f6124a283612c7a565b8083825282820191508286018b848660051b890101111561287f57600080fd5b600096505b848710156128ab57805161289781612ec2565b835260019690960195918301918301612884565b50918901519197509093505050808211156128c557600080fd5b506128d286828701612481565b925050604084015190509250925092565b6000602082840312156128f557600080fd5b5035919050565b6000806040838503121561290f57600080fd5b8235915060208301356125d581612ec2565b6000806040838503121561293457600080fd5b50508035926020909101359150565b60006020828403121561295557600080fd5b81356001600160e01b03198116811461152f57600080fd5b600060c0828403121561297f57600080fd5b60405160c081018181106001600160401b03821117156129a1576129a1612eac565b60405282516129af81612ec2565b815260208301516bffffffffffffffffffffffff811681146129d057600080fd5b602082015260408301516129e381612ec2565b60408201526129f46060840161255b565b6060820152612a05608084016124f3565b6080820152612a1660a084016124f3565b60a08201529392505050565b600080600060608486031215612a3757600080fd5b612a4084612544565b9250612a4e60208501612544565b9150604084015163ffffffff81168114612a6757600080fd5b809150509250925092565b600060208284031215612a8457600080fd5b5051919050565b600060208284031215612a9d57600080fd5b815160ff8116811461152f57600080fd5b60008251612ac0818460208701612e08565b9190910192915050565b7f416363657373436f6e74726f6c3a206163636f756e7420000000000000000000815260008351612b02816017850160208801612e08565b7001034b99036b4b9b9b4b733903937b6329607d1b6017918401918201528351612b33816028840160208801612e08565b01602801949350505050565b6020808252825182820181905260009190848201906040850190845b81811015612b7757835183529284019291840191600101612b5b565b50909695505050505050565b6020815260008251806020840152612ba2816040850160208701612e08565b601f01601f19169190910160400192915050565b6020808252602e908201527f496e697469616c697a61626c653a20636f6e747261637420697320616c72656160408201526d191e481a5b9a5d1a585b1a5e995960921b606082015260800190565b6000808335601e19843603018112612c1b57600080fd5b8301803591506001600160401b03821115612c3557600080fd5b60200191503681900382131561247a57600080fd5b604051601f8201601f191681016001600160401b0381118282101715612c7257612c72612eac565b604052919050565b60006001600160401b03821115612c9357612c93612eac565b5060051b60200190565b60008219821115612cb057612cb0612e6a565b500190565b600082612cd257634e487b7160e01b600052601260045260246000fd5b500490565b600181815b80851115612d12578160001904821115612cf857612cf8612e6a565b80851615612d0557918102915b93841c9390800290612cdc565b509250929050565b600061152f8383612d31565b600061152f60ff8416835b600082612d4057506001610512565b81612d4d57506000610512565b8160018114612d635760028114612d6d57612d89565b6001915050610512565b60ff841115612d7e57612d7e612e6a565b50506001821b610512565b5060208310610133831016604e8410600b8410161715612dac575081810a610512565b612db68383612cd7565b8060001904821115612dca57612dca612e6a565b029392505050565b6000816000190483118215151615612dec57612dec612e6a565b500290565b600082821015612e0357612e03612e6a565b500390565b60005b83811015612e23578181015183820152602001612e0b565b83811115612e32576000848401525b50505050565b600081612e4757612e47612e6a565b506000190190565b6000600019821415612e6357612e63612e6a565b5060010190565b634e487b7160e01b600052601160045260246000fd5b634e487b7160e01b600052603160045260246000fd5b634e487b7160e01b600052603260045260246000fd5b634e487b7160e01b600052604160045260246000fd5b6001600160a01b0381168114611f9157600080fd5b8015158114611f9157600080fdfe608060405234801561001057600080fd5b50610306806100206000396000f3fe608060405234801561001057600080fd5b50600436106100365760003560e01c8063679c83771461003b578063e5e31b1314610071575b600080fd5b61004e61004936600461020e565b610086565b604080516001600160a01b03909316835260208301919091520160405180910390f35b61008461007f36600461020e565b610174565b005b600080826001600160a01b0316638d928af86040518163ffffffff1660e01b815260040160206040518083038186803b1580156100c257600080fd5b505afa1580156100d6573d6000803e3d6000fd5b505050506040513d601f19601f820116820180604052508101906100fa9190610232565b836001600160a01b03166338fff2d06040518163ffffffff1660e01b815260040160206040518083038186803b15801561013357600080fd5b505afa158015610147573d6000803e3d6000fd5b505050506040513d601f19601f8201168201806040525081019061016b919061024f565b91509150915091565b806001600160a01b0316630902f1ac6040518163ffffffff1660e01b815260040160606040518083038186803b1580156101ad57600080fd5b505afa1580156101c1573d6000803e3d6000fd5b505050506040513d601f19601f820116820180604052508101906101e59190610268565b50505050565b80516dffffffffffffffffffffffffffff8116811461020957600080fd5b919050565b60006020828403121561022057600080fd5b813561022b816102b8565b9392505050565b60006020828403121561024457600080fd5b815161022b816102b8565b60006020828403121561026157600080fd5b5051919050565b60008060006060848603121561027d57600080fd5b610286846101eb565b9250610294602085016101eb565b9150604084015163ffffffff811681146102ad57600080fd5b809150509250925092565b6001600160a01b03811681146102cd57600080fd5b5056fea26469706673582212207d677443af4316ecf6a057fb58153c72247a7ecc945a9d874fe9795cecb9d52f64736f6c63430008060033ad6046625976df65390784e1468d8079825cbbf88f7c6b2da3f12871b375c79f44aabcfc5881ba432c01a4847f5a748ae4b67aec352e00a6358dc53f52464ffda2646970667358221220bf63af3328d819fc6fa90da00153cd9a77ed142a6129570c22ea490dcb592a4264736f6c63430008060033",
  "devdoc": {
    "kind": "dev",
    "methods": {
      "getDiscoveredTokenValue(address,uint256)": {
        "details": "Get pairs, weight by token amount, stop after $1000 is aggregated."
      },
      "getRoleAdmin(bytes32)": {
        "details": "Returns the admin role that controls `role`. See {grantRole} and {revokeRole}. To change a role's admin, use {_setRoleAdmin}."
      },
      "getRoleMember(bytes32,uint256)": {
        "details": "Returns one of the accounts that have `role`. `index` must be a value between 0 and {getRoleMemberCount}, non-inclusive. Role bearers are not sorted in any particular way, and their ordering may change at any point. WARNING: When using {getRoleMember} and {getRoleMemberCount}, make sure you perform all queries on the same block. See the following https://forum.openzeppelin.com/t/iterating-over-elements-on-enumerableset-in-openzeppelin-contracts/2296[forum post] for more information."
      },
      "getRoleMemberCount(bytes32)": {
        "details": "Returns the number of accounts that have `role`. Can be used together with {getRoleMember} to enumerate all bearers of a role."
      },
      "getValue(address,uint256,bytes)": {
        "params": {
          "metadata": "Can contain metadata about non ERC20 assets, like the token id of erc1155."
        }
      },
      "grantRole(bytes32,address)": {
        "details": "Grants `role` to `account`. If `account` had not been already granted `role`, emits a {RoleGranted} event. Requirements: - the caller must have ``role``'s admin role."
      },
      "hasRole(bytes32,address)": {
        "details": "Returns `true` if `account` has been granted `role`."
      },
      "renounceRole(bytes32,address)": {
        "details": "Revokes `role` from the calling account. Roles are often managed via {grantRole} and {revokeRole}: this function's purpose is to provide a mechanism for accounts to lose their privileges if they are compromised (such as when a trusted device is misplaced). If the calling account had been revoked `role`, emits a {RoleRevoked} event. Requirements: - the caller must be `account`."
      },
      "revokeRole(bytes32,address)": {
        "details": "Revokes `role` from `account`. If `account` had been granted `role`, emits a {RoleRevoked} event. Requirements: - the caller must have ``role``'s admin role."
      },
      "supportsInterface(bytes4)": {
        "details": "See {IERC165-supportsInterface}."
      }
    },
    "stateVariables": {
      "SET_FACTORY_ROLE": {
        "details": "Management roles"
      },
      "VERSION": {
        "details": "Simple identifier for internal parties. We reserve the right to make breaking changes without upgrading the VERSION."
      },
      "factories": {
        "details": "An enumerable list of all registered factories."
      },
      "mainAssets": {
        "details": "An enumerable list of all registered factories."
      },
      "overridenPairForToken": {
        "details": "Forces usage of the specified pair for calculating the first step of the value calculation."
      },
      "pairChecker": {
        "details": "Utility contract that throws if the provided address is not a pair, used because simple try-catch is insufficient due to it still reverting on wrong return data (and I'm too lazy for a low-level call)."
      },
      "stablecoins": {
        "details": "Information about a coin being a stablecoin. Everything is eventually routed to a stablecoin."
      }
    },
    "version": 1
  },
  "userdoc": {
    "kind": "user",
    "methods": {
      "addFactory(address)": {
        "notice": "** Factories *///"
      },
      "addMainAsset(address)": {
        "notice": "** Main assets *///"
      },
      "getPrice(address,bytes)": {
        "notice": "Returns the dollar value of the `amount` of one full unit (10**decimals) of `asset` at the current spot price. Returned value is in 1e18."
      },
      "getPrices(address[],bytes[])": {
        "notice": "Calls getPrice for all provided assets. Input parameters must be equal length."
      },
      "getValue(address,uint256,bytes)": {
        "notice": "Returns the dollar value of the `amount` of `asset` at the current spot price. Returned value is in 1e18."
      },
      "getValues(address[],uint256[],bytes[])": {
        "notice": "calls getValue for all provided assets. Input parameters must be equal length."
      }
    },
    "version": 1
  },
  "storageLayout": {
    "storage": [
      {
        "astId": 596,
        "contract": "contracts/PricerHandlerV1.sol:PricerHandlerV1",
        "label": "_initialized",
        "offset": 0,
        "slot": "0",
        "type": "t_bool"
      },
      {
        "astId": 599,
        "contract": "contracts/PricerHandlerV1.sol:PricerHandlerV1",
        "label": "_initializing",
        "offset": 1,
        "slot": "0",
        "type": "t_bool"
      },
      {
        "astId": 679,
        "contract": "contracts/PricerHandlerV1.sol:PricerHandlerV1",
        "label": "__gap",
        "offset": 0,
        "slot": "1",
        "type": "t_array(t_uint256)50_storage"
      },
      {
        "astId": 928,
        "contract": "contracts/PricerHandlerV1.sol:PricerHandlerV1",
        "label": "__gap",
        "offset": 0,
        "slot": "51",
        "type": "t_array(t_uint256)50_storage"
      },
      {
        "astId": 204,
        "contract": "contracts/PricerHandlerV1.sol:PricerHandlerV1",
        "label": "_roles",
        "offset": 0,
        "slot": "101",
        "type": "t_mapping(t_bytes32,t_struct(RoleData)199_storage)"
      },
      {
        "astId": 491,
        "contract": "contracts/PricerHandlerV1.sol:PricerHandlerV1",
        "label": "__gap",
        "offset": 0,
        "slot": "102",
        "type": "t_array(t_uint256)49_storage"
      },
      {
        "astId": 45,
        "contract": "contracts/PricerHandlerV1.sol:PricerHandlerV1",
        "label": "_roleMembers",
        "offset": 0,
        "slot": "151",
        "type": "t_mapping(t_bytes32,t_struct(AddressSet)1253_storage)"
      },
      {
        "astId": 154,
        "contract": "contracts/PricerHandlerV1.sol:PricerHandlerV1",
        "label": "__gap",
        "offset": 0,
        "slot": "152",
        "type": "t_array(t_uint256)49_storage"
      },
      {
        "astId": 5135,
        "contract": "contracts/PricerHandlerV1.sol:PricerHandlerV1",
        "label": "factories",
        "offset": 0,
        "slot": "201",
        "type": "t_struct(AddressSet)3989_storage"
      },
      {
        "astId": 5139,
        "contract": "contracts/PricerHandlerV1.sol:PricerHandlerV1",
        "label": "mainAssets",
        "offset": 0,
        "slot": "203",
        "type": "t_struct(AddressSet)3989_storage"
      },
      {
        "astId": 5145,
        "contract": "contracts/PricerHandlerV1.sol:PricerHandlerV1",
        "label": "overridenPairForToken",
        "offset": 0,
        "slot": "205",
        "type": "t_mapping(t_address,t_contract(IUniswapV2Pair)4581)"
      },
      {
        "astId": 5151,
        "contract": "contracts/PricerHandlerV1.sol:PricerHandlerV1",
        "label": "stablecoins",
        "offset": 0,
        "slot": "206",
        "type": "t_mapping(t_address,t_struct(StableCoinInfo)5131_storage)"
      },
      {
        "astId": 5166,
        "contract": "contracts/PricerHandlerV1.sol:PricerHandlerV1",
        "label": "pairChecker",
        "offset": 0,
        "slot": "207",
        "type": "t_contract(PairChecker)6177"
      }
    ],
    "types": {
      "t_address": {
        "encoding": "inplace",
        "label": "address",
        "numberOfBytes": "20"
      },
      "t_array(t_bytes32)dyn_storage": {
        "base": "t_bytes32",
        "encoding": "dynamic_array",
        "label": "bytes32[]",
        "numberOfBytes": "32"
      },
      "t_array(t_uint256)49_storage": {
        "base": "t_uint256",
        "encoding": "inplace",
        "label": "uint256[49]",
        "numberOfBytes": "1568"
      },
      "t_array(t_uint256)50_storage": {
        "base": "t_uint256",
        "encoding": "inplace",
        "label": "uint256[50]",
        "numberOfBytes": "1600"
      },
      "t_bool": {
        "encoding": "inplace",
        "label": "bool",
        "numberOfBytes": "1"
      },
      "t_bytes32": {
        "encoding": "inplace",
        "label": "bytes32",
        "numberOfBytes": "32"
      },
      "t_contract(IUniswapV2Pair)4581": {
        "encoding": "inplace",
        "label": "contract IUniswapV2Pair",
        "numberOfBytes": "20"
      },
      "t_contract(PairChecker)6177": {
        "encoding": "inplace",
        "label": "contract PairChecker",
        "numberOfBytes": "20"
      },
      "t_mapping(t_address,t_bool)": {
        "encoding": "mapping",
        "key": "t_address",
        "label": "mapping(address => bool)",
        "numberOfBytes": "32",
        "value": "t_bool"
      },
      "t_mapping(t_address,t_contract(IUniswapV2Pair)4581)": {
        "encoding": "mapping",
        "key": "t_address",
        "label": "mapping(address => contract IUniswapV2Pair)",
        "numberOfBytes": "32",
        "value": "t_contract(IUniswapV2Pair)4581"
      },
      "t_mapping(t_address,t_struct(StableCoinInfo)5131_storage)": {
        "encoding": "mapping",
        "key": "t_address",
        "label": "mapping(address => struct PricerHandlerV1.StableCoinInfo)",
        "numberOfBytes": "32",
        "value": "t_struct(StableCoinInfo)5131_storage"
      },
      "t_mapping(t_bytes32,t_struct(AddressSet)1253_storage)": {
        "encoding": "mapping",
        "key": "t_bytes32",
        "label": "mapping(bytes32 => struct EnumerableSetUpgradeable.AddressSet)",
        "numberOfBytes": "32",
        "value": "t_struct(AddressSet)1253_storage"
      },
      "t_mapping(t_bytes32,t_struct(RoleData)199_storage)": {
        "encoding": "mapping",
        "key": "t_bytes32",
        "label": "mapping(bytes32 => struct AccessControlUpgradeable.RoleData)",
        "numberOfBytes": "32",
        "value": "t_struct(RoleData)199_storage"
      },
      "t_mapping(t_bytes32,t_uint256)": {
        "encoding": "mapping",
        "key": "t_bytes32",
        "label": "mapping(bytes32 => uint256)",
        "numberOfBytes": "32",
        "value": "t_uint256"
      },
      "t_struct(AddressSet)1253_storage": {
        "encoding": "inplace",
        "label": "struct EnumerableSetUpgradeable.AddressSet",
        "members": [
          {
            "astId": 1252,
            "contract": "contracts/PricerHandlerV1.sol:PricerHandlerV1",
            "label": "_inner",
            "offset": 0,
            "slot": "0",
            "type": "t_struct(Set)952_storage"
          }
        ],
        "numberOfBytes": "64"
      },
      "t_struct(AddressSet)3989_storage": {
        "encoding": "inplace",
        "label": "struct EnumerableSet.AddressSet",
        "members": [
          {
            "astId": 3988,
            "contract": "contracts/PricerHandlerV1.sol:PricerHandlerV1",
            "label": "_inner",
            "offset": 0,
            "slot": "0",
            "type": "t_struct(Set)3688_storage"
          }
        ],
        "numberOfBytes": "64"
      },
      "t_struct(RoleData)199_storage": {
        "encoding": "inplace",
        "label": "struct AccessControlUpgradeable.RoleData",
        "members": [
          {
            "astId": 196,
            "contract": "contracts/PricerHandlerV1.sol:PricerHandlerV1",
            "label": "members",
            "offset": 0,
            "slot": "0",
            "type": "t_mapping(t_address,t_bool)"
          },
          {
            "astId": 198,
            "contract": "contracts/PricerHandlerV1.sol:PricerHandlerV1",
            "label": "adminRole",
            "offset": 0,
            "slot": "1",
            "type": "t_bytes32"
          }
        ],
        "numberOfBytes": "64"
      },
      "t_struct(Set)3688_storage": {
        "encoding": "inplace",
        "label": "struct EnumerableSet.Set",
        "members": [
          {
            "astId": 3683,
            "contract": "contracts/PricerHandlerV1.sol:PricerHandlerV1",
            "label": "_values",
            "offset": 0,
            "slot": "0",
            "type": "t_array(t_bytes32)dyn_storage"
          },
          {
            "astId": 3687,
            "contract": "contracts/PricerHandlerV1.sol:PricerHandlerV1",
            "label": "_indexes",
            "offset": 0,
            "slot": "1",
            "type": "t_mapping(t_bytes32,t_uint256)"
          }
        ],
        "numberOfBytes": "64"
      },
      "t_struct(Set)952_storage": {
        "encoding": "inplace",
        "label": "struct EnumerableSetUpgradeable.Set",
        "members": [
          {
            "astId": 947,
            "contract": "contracts/PricerHandlerV1.sol:PricerHandlerV1",
            "label": "_values",
            "offset": 0,
            "slot": "0",
            "type": "t_array(t_bytes32)dyn_storage"
          },
          {
            "astId": 951,
            "contract": "contracts/PricerHandlerV1.sol:PricerHandlerV1",
            "label": "_indexes",
            "offset": 0,
            "slot": "1",
            "type": "t_mapping(t_bytes32,t_uint256)"
          }
        ],
        "numberOfBytes": "64"
      },
      "t_struct(StableCoinInfo)5131_storage": {
        "encoding": "inplace",
        "label": "struct PricerHandlerV1.StableCoinInfo",
        "members": [
          {
            "astId": 5128,
            "contract": "contracts/PricerHandlerV1.sol:PricerHandlerV1",
            "label": "set",
            "offset": 0,
            "slot": "0",
            "type": "t_bool"
          },
          {
            "astId": 5130,
            "contract": "contracts/PricerHandlerV1.sol:PricerHandlerV1",
            "label": "decimals",
            "offset": 1,
            "slot": "0",
            "type": "t_uint8"
          }
        ],
        "numberOfBytes": "32"
      },
      "t_uint256": {
        "encoding": "inplace",
        "label": "uint256",
        "numberOfBytes": "32"
      },
      "t_uint8": {
        "encoding": "inplace",
        "label": "uint8",
        "numberOfBytes": "1"
      }
    }
  }
}